{
  "_format": "hh-sol-artifact-1",
  "contractName": "PledgePost",
  "sourceName": "contracts/PledgePost.sol",
  "abi": [
    {
      "inputs": [],
      "stateMutability": "nonpayable",
      "type": "constructor"
    },
    {
      "anonymous": false,
      "inputs": [
        {
          "indexed": true,
          "internalType": "uint256",
          "name": "roundId",
          "type": "uint256"
        },
        {
          "indexed": false,
          "internalType": "address",
          "name": "recipient",
          "type": "address"
        },
        {
          "indexed": false,
          "internalType": "uint256",
          "name": "amount",
          "type": "uint256"
        }
      ],
      "name": "Allocated",
      "type": "event"
    },
    {
      "anonymous": false,
      "inputs": [
        {
          "indexed": true,
          "internalType": "address",
          "name": "author",
          "type": "address"
        },
        {
          "indexed": false,
          "internalType": "address",
          "name": "from",
          "type": "address"
        },
        {
          "indexed": false,
          "internalType": "uint256",
          "name": "articleId",
          "type": "uint256"
        },
        {
          "indexed": false,
          "internalType": "uint256",
          "name": "amount",
          "type": "uint256"
        }
      ],
      "name": "ArticleDonated",
      "type": "event"
    },
    {
      "anonymous": false,
      "inputs": [
        {
          "indexed": true,
          "internalType": "address",
          "name": "author",
          "type": "address"
        },
        {
          "indexed": false,
          "internalType": "string",
          "name": "content",
          "type": "string"
        },
        {
          "indexed": false,
          "internalType": "uint256",
          "name": "articleId",
          "type": "uint256"
        }
      ],
      "name": "ArticlePosted",
      "type": "event"
    },
    {
      "anonymous": false,
      "inputs": [
        {
          "indexed": true,
          "internalType": "address",
          "name": "owner",
          "type": "address"
        },
        {
          "indexed": false,
          "internalType": "address",
          "name": "poolAddress",
          "type": "address"
        },
        {
          "indexed": false,
          "internalType": "uint256",
          "name": "startDate",
          "type": "uint256"
        },
        {
          "indexed": false,
          "internalType": "uint256",
          "name": "endDate",
          "type": "uint256"
        }
      ],
      "name": "RoundCreated",
      "type": "event"
    },
    {
      "inputs": [
        {
          "internalType": "uint256",
          "name": "_roundId",
          "type": "uint256"
        }
      ],
      "name": "Allocate",
      "outputs": [],
      "stateMutability": "nonpayable",
      "type": "function"
    },
    {
      "inputs": [
        {
          "internalType": "uint256",
          "name": "_roundId",
          "type": "uint256"
        }
      ],
      "name": "activateRound",
      "outputs": [],
      "stateMutability": "nonpayable",
      "type": "function"
    },
    {
      "inputs": [
        {
          "internalType": "uint256",
          "name": "_roundId",
          "type": "uint256"
        },
        {
          "internalType": "uint256",
          "name": "_articleId",
          "type": "uint256"
        }
      ],
      "name": "applyForRound",
      "outputs": [],
      "stateMutability": "nonpayable",
      "type": "function"
    },
    {
      "inputs": [
        {
          "internalType": "address",
          "name": "",
          "type": "address"
        },
        {
          "internalType": "uint256",
          "name": "",
          "type": "uint256"
        },
        {
          "internalType": "uint256",
          "name": "",
          "type": "uint256"
        }
      ],
      "name": "articleDonators",
      "outputs": [
        {
          "internalType": "address",
          "name": "",
          "type": "address"
        }
      ],
      "stateMutability": "view",
      "type": "function"
    },
    {
      "inputs": [
        {
          "internalType": "address",
          "name": "",
          "type": "address"
        },
        {
          "internalType": "uint256",
          "name": "",
          "type": "uint256"
        }
      ],
      "name": "authorArticles",
      "outputs": [
        {
          "internalType": "uint256",
          "name": "id",
          "type": "uint256"
        },
        {
          "internalType": "address",
          "name": "author",
          "type": "address"
        },
        {
          "internalType": "string",
          "name": "content",
          "type": "string"
        },
        {
          "internalType": "uint256",
          "name": "donationsReceived",
          "type": "uint256"
        }
      ],
      "stateMutability": "view",
      "type": "function"
    },
    {
      "inputs": [
        {
          "internalType": "address",
          "name": "",
          "type": "address"
        },
        {
          "internalType": "uint256",
          "name": "",
          "type": "uint256"
        }
      ],
      "name": "authorToArticleIdToRound",
      "outputs": [
        {
          "internalType": "uint256",
          "name": "id",
          "type": "uint256"
        },
        {
          "internalType": "address",
          "name": "owner",
          "type": "address"
        },
        {
          "internalType": "address",
          "name": "poolAddress",
          "type": "address"
        },
        {
          "internalType": "contract IERC20",
          "name": "poolToken",
          "type": "address"
        },
        {
          "internalType": "uint256",
          "name": "poolAmount",
          "type": "uint256"
        },
        {
          "internalType": "uint256",
          "name": "startDate",
          "type": "uint256"
        },
        {
          "internalType": "uint256",
          "name": "endDate",
          "type": "uint256"
        },
        {
          "internalType": "uint256",
          "name": "createdTimestamp",
          "type": "uint256"
        },
        {
          "internalType": "bool",
          "name": "isActive",
          "type": "bool"
        }
      ],
      "stateMutability": "view",
      "type": "function"
    },
    {
      "inputs": [
        {
          "internalType": "address",
          "name": "",
          "type": "address"
        }
      ],
      "name": "authorTotalDonations",
      "outputs": [
        {
          "internalType": "uint256",
          "name": "",
          "type": "uint256"
        }
      ],
      "stateMutability": "view",
      "type": "function"
    },
    {
      "inputs": [
        {
          "internalType": "contract IERC20",
          "name": "_token",
          "type": "address"
        },
        {
          "internalType": "string",
          "name": "_name",
          "type": "string"
        },
        {
          "internalType": "uint256",
          "name": "_startDate",
          "type": "uint256"
        },
        {
          "internalType": "uint256",
          "name": "_endDate",
          "type": "uint256"
        }
      ],
      "name": "createRound",
      "outputs": [
        {
          "components": [
            {
              "internalType": "uint256",
              "name": "id",
              "type": "uint256"
            },
            {
              "internalType": "address",
              "name": "owner",
              "type": "address"
            },
            {
              "internalType": "address",
              "name": "poolAddress",
              "type": "address"
            },
            {
              "internalType": "contract IERC20",
              "name": "poolToken",
              "type": "address"
            },
            {
              "internalType": "uint256",
              "name": "poolAmount",
              "type": "uint256"
            },
            {
              "internalType": "uint256",
              "name": "startDate",
              "type": "uint256"
            },
            {
              "internalType": "uint256",
              "name": "endDate",
              "type": "uint256"
            },
            {
              "internalType": "uint256",
              "name": "createdTimestamp",
              "type": "uint256"
            },
            {
              "internalType": "bool",
              "name": "isActive",
              "type": "bool"
            }
          ],
          "internalType": "struct PledgePost.Round",
          "name": "",
          "type": "tuple"
        }
      ],
      "stateMutability": "nonpayable",
      "type": "function"
    },
    {
      "inputs": [
        {
          "internalType": "uint256",
          "name": "_roundId",
          "type": "uint256"
        }
      ],
      "name": "deactivateRound",
      "outputs": [],
      "stateMutability": "nonpayable",
      "type": "function"
    },
    {
      "inputs": [
        {
          "internalType": "uint256",
          "name": "_roundId",
          "type": "uint256"
        },
        {
          "internalType": "uint256",
          "name": "_amount",
          "type": "uint256"
        }
      ],
      "name": "deposit",
      "outputs": [
        {
          "internalType": "bool",
          "name": "success",
          "type": "bool"
        }
      ],
      "stateMutability": "nonpayable",
      "type": "function"
    },
    {
      "inputs": [
        {
          "internalType": "address",
          "name": "_author",
          "type": "address"
        },
        {
          "internalType": "uint256",
          "name": "_articleId",
          "type": "uint256"
        },
        {
          "internalType": "contract IERC20",
          "name": "_token",
          "type": "address"
        },
        {
          "internalType": "uint256",
          "name": "_amount",
          "type": "uint256"
        }
      ],
      "name": "donateToArticle",
      "outputs": [],
      "stateMutability": "nonpayable",
      "type": "function"
    },
    {
      "inputs": [
        {
          "internalType": "uint256",
          "name": "_roundId",
          "type": "uint256"
        },
        {
          "internalType": "address",
          "name": "_author",
          "type": "address"
        },
        {
          "internalType": "uint256",
          "name": "_articleId",
          "type": "uint256"
        }
      ],
      "name": "getAllocation",
      "outputs": [
        {
          "internalType": "uint256",
          "name": "",
          "type": "uint256"
        }
      ],
      "stateMutability": "view",
      "type": "function"
    },
    {
      "inputs": [
        {
          "internalType": "address",
          "name": "_author",
          "type": "address"
        },
        {
          "internalType": "uint256",
          "name": "_articleId",
          "type": "uint256"
        }
      ],
      "name": "getAuthorArticle",
      "outputs": [
        {
          "components": [
            {
              "internalType": "uint256",
              "name": "id",
              "type": "uint256"
            },
            {
              "internalType": "address",
              "name": "author",
              "type": "address"
            },
            {
              "internalType": "string",
              "name": "content",
              "type": "string"
            },
            {
              "internalType": "uint256",
              "name": "donationsReceived",
              "type": "uint256"
            }
          ],
          "internalType": "struct PledgePost.Article",
          "name": "",
          "type": "tuple"
        }
      ],
      "stateMutability": "view",
      "type": "function"
    },
    {
      "inputs": [
        {
          "internalType": "address",
          "name": "_author",
          "type": "address"
        },
        {
          "internalType": "uint256",
          "name": "_articleId",
          "type": "uint256"
        }
      ],
      "name": "getDonatedAmount",
      "outputs": [
        {
          "internalType": "uint256",
          "name": "",
          "type": "uint256"
        }
      ],
      "stateMutability": "view",
      "type": "function"
    },
    {
      "inputs": [
        {
          "internalType": "address",
          "name": "_author",
          "type": "address"
        },
        {
          "internalType": "uint256",
          "name": "_articleId",
          "type": "uint256"
        },
        {
          "internalType": "uint256",
          "name": "_roundId",
          "type": "uint256"
        }
      ],
      "name": "getRecievedDonationsWithinRound",
      "outputs": [
        {
          "internalType": "uint256",
          "name": "",
          "type": "uint256"
        }
      ],
      "stateMutability": "view",
      "type": "function"
    },
    {
      "inputs": [
        {
          "internalType": "uint256",
          "name": "_roundId",
          "type": "uint256"
        }
      ],
      "name": "getRound",
      "outputs": [
        {
          "components": [
            {
              "internalType": "uint256",
              "name": "id",
              "type": "uint256"
            },
            {
              "internalType": "address",
              "name": "owner",
              "type": "address"
            },
            {
              "internalType": "address",
              "name": "poolAddress",
              "type": "address"
            },
            {
              "internalType": "contract IERC20",
              "name": "poolToken",
              "type": "address"
            },
            {
              "internalType": "uint256",
              "name": "poolAmount",
              "type": "uint256"
            },
            {
              "internalType": "uint256",
              "name": "startDate",
              "type": "uint256"
            },
            {
              "internalType": "uint256",
              "name": "endDate",
              "type": "uint256"
            },
            {
              "internalType": "uint256",
              "name": "createdTimestamp",
              "type": "uint256"
            },
            {
              "internalType": "bool",
              "name": "isActive",
              "type": "bool"
            }
          ],
          "internalType": "struct PledgePost.Round",
          "name": "",
          "type": "tuple"
        }
      ],
      "stateMutability": "view",
      "type": "function"
    },
    {
      "inputs": [
        {
          "internalType": "uint256",
          "name": "_articleId",
          "type": "uint256"
        }
      ],
      "name": "getRoundArticle",
      "outputs": [
        {
          "components": [
            {
              "internalType": "uint256",
              "name": "id",
              "type": "uint256"
            },
            {
              "internalType": "address",
              "name": "owner",
              "type": "address"
            },
            {
              "internalType": "address",
              "name": "poolAddress",
              "type": "address"
            },
            {
              "internalType": "contract IERC20",
              "name": "poolToken",
              "type": "address"
            },
            {
              "internalType": "uint256",
              "name": "poolAmount",
              "type": "uint256"
            },
            {
              "internalType": "uint256",
              "name": "startDate",
              "type": "uint256"
            },
            {
              "internalType": "uint256",
              "name": "endDate",
              "type": "uint256"
            },
            {
              "internalType": "uint256",
              "name": "createdTimestamp",
              "type": "uint256"
            },
            {
              "internalType": "bool",
              "name": "isActive",
              "type": "bool"
            }
          ],
          "internalType": "struct PledgePost.Round",
          "name": "",
          "type": "tuple"
        }
      ],
      "stateMutability": "view",
      "type": "function"
    },
    {
      "inputs": [],
      "name": "getRoundLength",
      "outputs": [
        {
          "internalType": "uint256",
          "name": "",
          "type": "uint256"
        }
      ],
      "stateMutability": "view",
      "type": "function"
    },
    {
      "inputs": [
        {
          "internalType": "uint256",
          "name": "x",
          "type": "uint256"
        }
      ],
      "name": "getSquareRoot",
      "outputs": [
        {
          "internalType": "uint256",
          "name": "",
          "type": "uint256"
        }
      ],
      "stateMutability": "pure",
      "type": "function"
    },
    {
      "inputs": [
        {
          "internalType": "uint256",
          "name": "_roundId",
          "type": "uint256"
        }
      ],
      "name": "getTotalSquareSqrtSum",
      "outputs": [
        {
          "internalType": "uint256",
          "name": "",
          "type": "uint256"
        }
      ],
      "stateMutability": "view",
      "type": "function"
    },
    {
      "inputs": [
        {
          "internalType": "uint256",
          "name": "",
          "type": "uint256"
        },
        {
          "internalType": "address",
          "name": "",
          "type": "address"
        },
        {
          "internalType": "uint256",
          "name": "",
          "type": "uint256"
        }
      ],
      "name": "matchingAmounts",
      "outputs": [
        {
          "internalType": "uint256",
          "name": "",
          "type": "uint256"
        }
      ],
      "stateMutability": "view",
      "type": "function"
    },
    {
      "inputs": [],
      "name": "owner",
      "outputs": [
        {
          "internalType": "address",
          "name": "",
          "type": "address"
        }
      ],
      "stateMutability": "view",
      "type": "function"
    },
    {
      "inputs": [
        {
          "internalType": "string",
          "name": "_content",
          "type": "string"
        }
      ],
      "name": "postArticle",
      "outputs": [
        {
          "internalType": "uint256",
          "name": "",
          "type": "uint256"
        }
      ],
      "stateMutability": "nonpayable",
      "type": "function"
    },
    {
      "inputs": [
        {
          "internalType": "address",
          "name": "",
          "type": "address"
        },
        {
          "internalType": "uint256",
          "name": "",
          "type": "uint256"
        },
        {
          "internalType": "uint256",
          "name": "",
          "type": "uint256"
        }
      ],
      "name": "recievedDonationsWithinRound",
      "outputs": [
        {
          "internalType": "uint256",
          "name": "",
          "type": "uint256"
        }
      ],
      "stateMutability": "view",
      "type": "function"
    },
    {
      "inputs": [
        {
          "internalType": "uint256",
          "name": "",
          "type": "uint256"
        },
        {
          "internalType": "uint256",
          "name": "",
          "type": "uint256"
        }
      ],
      "name": "roundArticles",
      "outputs": [
        {
          "internalType": "uint256",
          "name": "id",
          "type": "uint256"
        },
        {
          "internalType": "address",
          "name": "author",
          "type": "address"
        },
        {
          "internalType": "string",
          "name": "content",
          "type": "string"
        },
        {
          "internalType": "uint256",
          "name": "donationsReceived",
          "type": "uint256"
        }
      ],
      "stateMutability": "view",
      "type": "function"
    },
    {
      "inputs": [
        {
          "internalType": "uint256",
          "name": "",
          "type": "uint256"
        }
      ],
      "name": "rounds",
      "outputs": [
        {
          "internalType": "uint256",
          "name": "id",
          "type": "uint256"
        },
        {
          "internalType": "address",
          "name": "owner",
          "type": "address"
        },
        {
          "internalType": "address",
          "name": "poolAddress",
          "type": "address"
        },
        {
          "internalType": "contract IERC20",
          "name": "poolToken",
          "type": "address"
        },
        {
          "internalType": "uint256",
          "name": "poolAmount",
          "type": "uint256"
        },
        {
          "internalType": "uint256",
          "name": "startDate",
          "type": "uint256"
        },
        {
          "internalType": "uint256",
          "name": "endDate",
          "type": "uint256"
        },
        {
          "internalType": "uint256",
          "name": "createdTimestamp",
          "type": "uint256"
        },
        {
          "internalType": "bool",
          "name": "isActive",
          "type": "bool"
        }
      ],
      "stateMutability": "view",
      "type": "function"
    }
  ],
  "bytecode": "0x608060405234801561001057600080fd5b5033600860006101000a81548173ffffffffffffffffffffffffffffffffffffffff021916908373ffffffffffffffffffffffffffffffffffffffff160217905550614fb5806100616000396000f3fe608060405234801561001057600080fd5b506004361061018e5760003560e01c8063afba9ada116100de578063db76c71011610097578063f162553411610071578063f162553414610555578063f508d7e314610571578063f9472689146105a1578063fe81a1f7146105d15761018e565b8063db76c710146104c5578063e2bbb158146104f5578063e5df05cf146105255761018e565b8063afba9ada146103cb578063b283607b146103fb578063c0b50cb81461042b578063c6fd06c71461045b578063ce6236ca14610477578063cecb2b04146104955761018e565b806337cae80a1161014b5780638da5cb5b116101255780638da5cb5b1461031a5780638f1327c0146103385780638ff4dd9414610368578063abb74ba51461039b5761018e565b806337cae80a1461028257806371d703b5146102b25780638c65c81f146102e25761018e565b80630fef038914610193578063101a3cc4146101af57806314743e7e146101e25780631bfddd35146101fe57806320fb90dd1461021a57806327a1de951461024a575b600080fd5b6101ad60048036038101906101a89190612e5b565b610601565b005b6101c960048036038101906101c49190612ec2565b610bc5565b6040516101d99493929190612fb0565b60405180910390f35b6101fc60048036038101906101f79190612ffc565b610cba565b005b61021860048036038101906102139190613029565b610e70565b005b610234600480360381019061022f9190612ec2565b6113a8565b6040516102419190613134565b60405180910390f35b610264600480360381019061025f9190612ec2565b61151d565b604051610279999897969594939291906131d0565b60405180910390f35b61029c6004803603810190610297919061325d565b6115e5565b6040516102a991906132b0565b60405180910390f35b6102cc60048036038101906102c79190613400565b611640565b6040516102d99190613558565b60405180910390f35b6102fc60048036038101906102f79190612ffc565b6119d2565b604051610311999897969594939291906131d0565b60405180910390f35b610322611a9d565b60405161032f91906132b0565b60405180910390f35b610352600480360381019061034d9190612ffc565b611ac3565b60405161035f9190613558565b60405180910390f35b610382600480360381019061037d9190613029565b611c4f565b6040516103929493929190612fb0565b60405180910390f35b6103b560048036038101906103b0919061325d565b611d44565b6040516103c29190613574565b60405180910390f35b6103e560048036038101906103e0919061325d565b611db1565b6040516103f29190613574565b60405180910390f35b6104156004803603810190610410919061358f565b611de3565b6040516104229190613574565b60405180910390f35b61044560048036038101906104409190612ec2565b611e50565b6040516104529190613574565b60405180910390f35b61047560048036038101906104709190612ffc565b611ebc565b005b61047f6122ff565b60405161048c9190613574565b60405180910390f35b6104af60048036038101906104aa91906135e2565b61230c565b6040516104bc9190613574565b60405180910390f35b6104df60048036038101906104da9190612ffc565b612324565b6040516104ec9190613574565b60405180910390f35b61050f600480360381019061050a9190613029565b612336565b60405161051c919061360f565b60405180910390f35b61053f600480360381019061053a9190612ffc565b612491565b60405161054c9190613574565b60405180910390f35b61056f600480360381019061056a9190612ffc565b612610565b005b61058b60048036038101906105869190612ffc565b61277f565b6040516105989190613558565b60405180910390f35b6105bb60048036038101906105b6919061358f565b612939565b6040516105c89190613574565b60405180910390f35b6105eb60048036038101906105e6919061362a565b61296b565b6040516105f89190613574565b60405180910390f35b808273ffffffffffffffffffffffffffffffffffffffff1663dd62ed3e33306040518363ffffffff1660e01b815260040161063d929190613673565b602060405180830381865afa15801561065a573d6000803e3d6000fd5b505050506040513d601f19601f8201168201806040525081019061067e91906136b1565b10156106bf576040517f08c379a00000000000000000000000000000000000000000000000000000000081526004016106b69061372a565b60405180910390fd5b808273ffffffffffffffffffffffffffffffffffffffff166370a08231336040518263ffffffff1660e01b81526004016106f991906132b0565b602060405180830381865afa158015610716573d6000803e3d6000fd5b505050506040513d601f19601f8201168201806040525081019061073a91906136b1565b101561077b576040517f08c379a000000000000000000000000000000000000000000000000000000000815260040161077290613796565b60405180910390fd5b600081116107be576040517f08c379a00000000000000000000000000000000000000000000000000000000081526004016107b590613802565b60405180910390fd5b6000808573ffffffffffffffffffffffffffffffffffffffff1673ffffffffffffffffffffffffffffffffffffffff168152602001908152602001600020805490508310610841576040517f08c379a00000000000000000000000000000000000000000000000000000000081526004016108389061386e565b60405180910390fd5b60008060008673ffffffffffffffffffffffffffffffffffffffff1673ffffffffffffffffffffffffffffffffffffffff16815260200190815260200160002084815481106108935761089261388e565b5b906000526020600020906004020190508273ffffffffffffffffffffffffffffffffffffffff166323b872dd338360010160009054906101000a900473ffffffffffffffffffffffffffffffffffffffff16856040518463ffffffff1660e01b8152600401610904939291906138bd565b6020604051808303816000875af1158015610923573d6000803e3d6000fd5b505050506040513d601f19601f820116820180604052508101906109479190613920565b50600260008673ffffffffffffffffffffffffffffffffffffffff1673ffffffffffffffffffffffffffffffffffffffff1681526020019081526020016000206000858152602001908152602001600020339080600181540180825580915050600190039060005260206000200160009091909190916101000a81548173ffffffffffffffffffffffffffffffffffffffff021916908373ffffffffffffffffffffffffffffffffffffffff16021790555081816003016000828254610a0d919061397c565b9250508190555081600160008773ffffffffffffffffffffffffffffffffffffffff1673ffffffffffffffffffffffffffffffffffffffff1681526020019081526020016000206000828254610a63919061397c565b925050819055506000600560008773ffffffffffffffffffffffffffffffffffffffff1673ffffffffffffffffffffffffffffffffffffffff168152602001908152602001600020600086815260200190815260200160002090506000816000015410158015610ae157508060080160009054906101000a900460ff165b15610b6b57610aef83612b64565b600660008873ffffffffffffffffffffffffffffffffffffffff1673ffffffffffffffffffffffffffffffffffffffff16815260200190815260200160002060008781526020019081526020016000206000836000015481526020019081526020016000206000828254610b63919061397c565b925050819055505b8573ffffffffffffffffffffffffffffffffffffffff167f156f4e4409ddebc945c5614a72c50315673686ffb291cac167b0409de20f291b338786604051610bb5939291906139b0565b60405180910390a2505050505050565b60006020528160005260406000208181548110610be157600080fd5b9060005260206000209060040201600091509150508060000154908060010160009054906101000a900473ffffffffffffffffffffffffffffffffffffffff1690806002018054610c3190613a16565b80601f0160208091040260200160405190810160405280929190818152602001828054610c5d90613a16565b8015610caa5780601f10610c7f57610100808354040283529160200191610caa565b820191906000526020600020905b815481529060010190602001808311610c8d57829003601f168201915b5050505050908060030154905084565b600860009054906101000a900473ffffffffffffffffffffffffffffffffffffffff1673ffffffffffffffffffffffffffffffffffffffff163373ffffffffffffffffffffffffffffffffffffffff1614610d4a576040517f08c379a0000000000000000000000000000000000000000000000000000000008152600401610d4190613ab9565b60405180910390fd5b6003805490508110610d91576040517f08c379a0000000000000000000000000000000000000000000000000000000008152600401610d8890613b25565b60405180910390fd5b600060038281548110610da757610da661388e565b5b906000526020600020906009020190508060080160009054906101000a900460ff1615610e09576040517f08c379a0000000000000000000000000000000000000000000000000000000008152600401610e0090613b91565b60405180910390fd5b42816006015411610e4f576040517f08c379a0000000000000000000000000000000000000000000000000000000008152600401610e4690613bfd565b60405180910390fd5b60018160080160006101000a81548160ff0219169083151502179055505050565b60008060003373ffffffffffffffffffffffffffffffffffffffff1673ffffffffffffffffffffffffffffffffffffffff1681526020019081526020016000208281548110610ec257610ec161388e565b5b906000526020600020906004020190508060010160009054906101000a900473ffffffffffffffffffffffffffffffffffffffff1673ffffffffffffffffffffffffffffffffffffffff163373ffffffffffffffffffffffffffffffffffffffff1614610f64576040517f08c379a0000000000000000000000000000000000000000000000000000000008152600401610f5b90613c69565b60405180910390fd5b6003805490508310610fab576040517f08c379a0000000000000000000000000000000000000000000000000000000008152600401610fa290613b25565b60405180910390fd5b600060038481548110610fc157610fc061388e565b5b906000526020600020906009020190508060080160009054906101000a900460ff16611022576040517f08c379a000000000000000000000000000000000000000000000000000000000815260040161101990613cd5565b60405180910390fd5b42816006015411611068576040517f08c379a000000000000000000000000000000000000000000000000000000000815260040161105f90613bfd565b60405180910390fd5b6000803373ffffffffffffffffffffffffffffffffffffffff1673ffffffffffffffffffffffffffffffffffffffff1681526020019081526020016000208054905083106110eb576040517f08c379a00000000000000000000000000000000000000000000000000000000081526004016110e29061386e565b60405180910390fd5b80600560003373ffffffffffffffffffffffffffffffffffffffff1673ffffffffffffffffffffffffffffffffffffffff1681526020019081526020016000206000858152602001908152602001600020600082015481600001556001820160009054906101000a900473ffffffffffffffffffffffffffffffffffffffff168160010160006101000a81548173ffffffffffffffffffffffffffffffffffffffff021916908373ffffffffffffffffffffffffffffffffffffffff1602179055506002820160009054906101000a900473ffffffffffffffffffffffffffffffffffffffff168160020160006101000a81548173ffffffffffffffffffffffffffffffffffffffff021916908373ffffffffffffffffffffffffffffffffffffffff1602179055506003820160009054906101000a900473ffffffffffffffffffffffffffffffffffffffff168160030160006101000a81548173ffffffffffffffffffffffffffffffffffffffff021916908373ffffffffffffffffffffffffffffffffffffffff160217905550600482015481600401556005820154816005015560068201548160060155600782015481600701556008820160009054906101000a900460ff168160080160006101000a81548160ff02191690831515021790555090505060046000858152602001908152602001600020829080600181540180825580915050600190039060005260206000209060040201600090919091909150600082015481600001556001820160009054906101000a900473ffffffffffffffffffffffffffffffffffffffff168160010160006101000a81548173ffffffffffffffffffffffffffffffffffffffff021916908373ffffffffffffffffffffffffffffffffffffffff160217905550600282018160020190816113959190613ead565b5060038201548160030155505050505050565b6113b0612c9a565b6000808473ffffffffffffffffffffffffffffffffffffffff1673ffffffffffffffffffffffffffffffffffffffff1681526020019081526020016000208281548110611400576113ff61388e565b5b9060005260206000209060040201604051806080016040529081600082015481526020016001820160009054906101000a900473ffffffffffffffffffffffffffffffffffffffff1673ffffffffffffffffffffffffffffffffffffffff1673ffffffffffffffffffffffffffffffffffffffff16815260200160028201805461148990613a16565b80601f01602080910402602001604051908101604052809291908181526020018280546114b590613a16565b80156115025780601f106114d757610100808354040283529160200191611502565b820191906000526020600020905b8154815290600101906020018083116114e557829003601f168201915b50505050508152602001600382015481525050905092915050565b6005602052816000526040600020602052806000526040600020600091509150508060000154908060010160009054906101000a900473ffffffffffffffffffffffffffffffffffffffff16908060020160009054906101000a900473ffffffffffffffffffffffffffffffffffffffff16908060030160009054906101000a900473ffffffffffffffffffffffffffffffffffffffff16908060040154908060050154908060060154908060070154908060080160009054906101000a900460ff16905089565b6002602052826000526040600020602052816000526040600020818154811061160d57600080fd5b90600052602060002001600092509250509054906101000a900473ffffffffffffffffffffffffffffffffffffffff1681565b611648612cd8565b600860009054906101000a900473ffffffffffffffffffffffffffffffffffffffff1673ffffffffffffffffffffffffffffffffffffffff163373ffffffffffffffffffffffffffffffffffffffff16146116d8576040517f08c379a00000000000000000000000000000000000000000000000000000000081526004016116cf90613ab9565b60405180910390fd5b81831061171a576040517f08c379a000000000000000000000000000000000000000000000000000000000815260040161171190614007565b60405180910390fd5b42821161175c576040517f08c379a000000000000000000000000000000000000000000000000000000000815260040161175390614073565b60405180910390fd5b600061176a86868686612bc1565b905060006040518061012001604052806003805490508152602001600860009054906101000a900473ffffffffffffffffffffffffffffffffffffffff1673ffffffffffffffffffffffffffffffffffffffff1681526020018373ffffffffffffffffffffffffffffffffffffffff1681526020018873ffffffffffffffffffffffffffffffffffffffff168152602001600081526020018681526020018581526020014281526020016001151581525090503373ffffffffffffffffffffffffffffffffffffffff167fc91e241f835729f3ff77afc08f1711ad170b337bf7d7ce32d617cf1c04fb2d17838787604051611867939291906139b0565b60405180910390a260038190806001815401808255809150506001900390600052602060002090600902016000909190919091506000820151816000015560208201518160010160006101000a81548173ffffffffffffffffffffffffffffffffffffffff021916908373ffffffffffffffffffffffffffffffffffffffff16021790555060408201518160020160006101000a81548173ffffffffffffffffffffffffffffffffffffffff021916908373ffffffffffffffffffffffffffffffffffffffff16021790555060608201518160030160006101000a81548173ffffffffffffffffffffffffffffffffffffffff021916908373ffffffffffffffffffffffffffffffffffffffff1602179055506080820151816004015560a0820151816005015560c0820151816006015560e082015181600701556101008201518160080160006101000a81548160ff02191690831515021790555050508092505050949350505050565b600381815481106119e257600080fd5b90600052602060002090600902016000915090508060000154908060010160009054906101000a900473ffffffffffffffffffffffffffffffffffffffff16908060020160009054906101000a900473ffffffffffffffffffffffffffffffffffffffff16908060030160009054906101000a900473ffffffffffffffffffffffffffffffffffffffff16908060040154908060050154908060060154908060070154908060080160009054906101000a900460ff16905089565b600860009054906101000a900473ffffffffffffffffffffffffffffffffffffffff1681565b611acb612cd8565b60038281548110611adf57611ade61388e565b5b906000526020600020906009020160405180610120016040529081600082015481526020016001820160009054906101000a900473ffffffffffffffffffffffffffffffffffffffff1673ffffffffffffffffffffffffffffffffffffffff1673ffffffffffffffffffffffffffffffffffffffff1681526020016002820160009054906101000a900473ffffffffffffffffffffffffffffffffffffffff1673ffffffffffffffffffffffffffffffffffffffff1673ffffffffffffffffffffffffffffffffffffffff1681526020016003820160009054906101000a900473ffffffffffffffffffffffffffffffffffffffff1673ffffffffffffffffffffffffffffffffffffffff1673ffffffffffffffffffffffffffffffffffffffff168152602001600482015481526020016005820154815260200160068201548152602001600782015481526020016008820160009054906101000a900460ff1615151515815250509050919050565b60046020528160005260406000208181548110611c6b57600080fd5b9060005260206000209060040201600091509150508060000154908060010160009054906101000a900473ffffffffffffffffffffffffffffffffffffffff1690806002018054611cbb90613a16565b80601f0160208091040260200160405190810160405280929190818152602001828054611ce790613a16565b8015611d345780601f10611d0957610100808354040283529160200191611d34565b820191906000526020600020905b815481529060010190602001808311611d1757829003601f168201915b5050505050908060030154905084565b6000600660008573ffffffffffffffffffffffffffffffffffffffff1673ffffffffffffffffffffffffffffffffffffffff168152602001908152602001600020600084815260200190815260200160002060008381526020019081526020016000205490509392505050565b600660205282600052604060002060205281600052604060002060205280600052604060002060009250925050505481565b60006007600085815260200190815260200160002060008473ffffffffffffffffffffffffffffffffffffffff1673ffffffffffffffffffffffffffffffffffffffff16815260200190815260200160002060008381526020019081526020016000205490509392505050565b60008060008473ffffffffffffffffffffffffffffffffffffffff1673ffffffffffffffffffffffffffffffffffffffff1681526020019081526020016000208281548110611ea257611ea161388e565b5b906000526020600020906004020160030154905092915050565b600860009054906101000a900473ffffffffffffffffffffffffffffffffffffffff1673ffffffffffffffffffffffffffffffffffffffff163373ffffffffffffffffffffffffffffffffffffffff1614611f4c576040517f08c379a0000000000000000000000000000000000000000000000000000000008152600401611f4390613ab9565b60405180910390fd5b6003805490508110611f93576040517f08c379a0000000000000000000000000000000000000000000000000000000008152600401611f8a90613b25565b60405180910390fd5b600060038281548110611fa957611fa861388e565b5b906000526020600020906009020190506000611fc483612491565b9050600060046000858152602001908152602001600020805490501161201f576040517f08c379a0000000000000000000000000000000000000000000000000000000008152600401612016906140df565b60405180910390fd5b60005b60046000858152602001908152602001600020805490508110156122f95760006004600086815260200190815260200160002082815481106120675761206661388e565b5b9060005260206000209060040201905060006002600660008460010160009054906101000a900473ffffffffffffffffffffffffffffffffffffffff1673ffffffffffffffffffffffffffffffffffffffff1673ffffffffffffffffffffffffffffffffffffffff16815260200190815260200160002060008460000154815260200190815260200160002060008881526020019081526020016000205461210f919061423f565b9050600084828760040154612124919061428a565b61212e91906142fb565b9050806007600089815260200190815260200160002060008560010160009054906101000a900473ffffffffffffffffffffffffffffffffffffffff1673ffffffffffffffffffffffffffffffffffffffff1673ffffffffffffffffffffffffffffffffffffffff168152602001908152602001600020600085600001548152602001908152602001600020819055508560020160009054906101000a900473ffffffffffffffffffffffffffffffffffffffff1673ffffffffffffffffffffffffffffffffffffffff1663c32d316c8460010160009054906101000a900473ffffffffffffffffffffffffffffffffffffffff16836040518363ffffffff1660e01b815260040161224192919061432c565b6020604051808303816000875af1158015612260573d6000803e3d6000fd5b505050506040513d601f19601f820116820180604052508101906122849190613920565b50867f257cb22e03ab252c5a562a7b4b371f420ba141f1445d13e81e7f3ba3946f601f8460010160009054906101000a900473ffffffffffffffffffffffffffffffffffffffff16836040516122db92919061432c565b60405180910390a250505080806122f190614355565b915050612022565b50505050565b6000600380549050905090565b60016020528060005260406000206000915090505481565b600061232f82612b64565b9050919050565b6000600380549050831061237f576040517f08c379a000000000000000000000000000000000000000000000000000000000815260040161237690613b25565b60405180910390fd5b6000600384815481106123955761239461388e565b5b906000526020600020906009020190508060030160009054906101000a900473ffffffffffffffffffffffffffffffffffffffff1673ffffffffffffffffffffffffffffffffffffffff166323b872dd338360020160009054906101000a900473ffffffffffffffffffffffffffffffffffffffff16866040518463ffffffff1660e01b815260040161242a939291906138bd565b6020604051808303816000875af1158015612449573d6000803e3d6000fd5b505050506040513d601f19601f8201168201806040525081019061246d9190613920565b915082816004016000828254612483919061397c565b925050819055505092915050565b6000806000905060005b6004600085815260200190815260200160002080549050811015612606576000600460008681526020019081526020016000208054905011612512576040517f08c379a0000000000000000000000000000000000000000000000000000000008152600401612509906140df565b60405180910390fd5b60006004600086815260200190815260200160002082815481106125395761253861388e565b5b906000526020600020906004020190506000600660008360010160009054906101000a900473ffffffffffffffffffffffffffffffffffffffff1673ffffffffffffffffffffffffffffffffffffffff1673ffffffffffffffffffffffffffffffffffffffff16815260200190815260200160002060008360000154815260200190815260200160002060008781526020019081526020016000205490506002816125e4919061423f565b846125ef919061397c565b9350505080806125fe90614355565b91505061249b565b5080915050919050565b600860009054906101000a900473ffffffffffffffffffffffffffffffffffffffff1673ffffffffffffffffffffffffffffffffffffffff163373ffffffffffffffffffffffffffffffffffffffff16146126a0576040517f08c379a000000000000000000000000000000000000000000000000000000000815260040161269790613ab9565b60405180910390fd5b60038054905081106126e7576040517f08c379a00000000000000000000000000000000000000000000000000000000081526004016126de90613b25565b60405180910390fd5b6000600382815481106126fd576126fc61388e565b5b906000526020600020906009020190508060080160009054906101000a900460ff1661275e576040517f08c379a000000000000000000000000000000000000000000000000000000000815260040161275590613cd5565b60405180910390fd5b60008160080160006101000a81548160ff0219169083151502179055505050565b612787612cd8565b600560003373ffffffffffffffffffffffffffffffffffffffff1673ffffffffffffffffffffffffffffffffffffffff168152602001908152602001600020600083815260200190815260200160002060405180610120016040529081600082015481526020016001820160009054906101000a900473ffffffffffffffffffffffffffffffffffffffff1673ffffffffffffffffffffffffffffffffffffffff1673ffffffffffffffffffffffffffffffffffffffff1681526020016002820160009054906101000a900473ffffffffffffffffffffffffffffffffffffffff1673ffffffffffffffffffffffffffffffffffffffff1673ffffffffffffffffffffffffffffffffffffffff1681526020016003820160009054906101000a900473ffffffffffffffffffffffffffffffffffffffff1673ffffffffffffffffffffffffffffffffffffffff1673ffffffffffffffffffffffffffffffffffffffff168152602001600482015481526020016005820154815260200160068201548152602001600782015481526020016008820160009054906101000a900460ff1615151515815250509050919050565b600760205282600052604060002060205281600052604060002060205280600052604060002060009250925050505481565b60008060405180608001604052806000803373ffffffffffffffffffffffffffffffffffffffff1673ffffffffffffffffffffffffffffffffffffffff1681526020019081526020016000208054905081526020013373ffffffffffffffffffffffffffffffffffffffff168152602001848152602001600081525090506000803373ffffffffffffffffffffffffffffffffffffffff1673ffffffffffffffffffffffffffffffffffffffff1681526020019081526020016000208190806001815401808255809150506001900390600052602060002090600402016000909190919091506000820151816000015560208201518160010160006101000a81548173ffffffffffffffffffffffffffffffffffffffff021916908373ffffffffffffffffffffffffffffffffffffffff1602179055506040820151816002019081612ab7919061439d565b5060608201518160030155505060008060003373ffffffffffffffffffffffffffffffffffffffff1673ffffffffffffffffffffffffffffffffffffffff1681526020019081526020016000208054905090503373ffffffffffffffffffffffffffffffffffffffff167f8287f7cb9ee4a80a03db149d7cce31b9dc4803c6746c41e6131a5da3fbe392fa8583604051612b5292919061446f565b60405180910390a28092505050919050565b6000806002600184612b76919061397c565b612b8091906142fb565b90508291505b81811015612bbb578091506002818285612ba091906142fb565b612baa919061397c565b612bb491906142fb565b9050612b86565b50919050565b60008060405180602001612bd490612d68565b6020820181038252601f19601f8201166040525090506000858585604051602001612c01939291906144fc565b604051602081830303815290604052805190602001209050808251602084016000f592508273ffffffffffffffffffffffffffffffffffffffff1663c4d66de8886040518263ffffffff1660e01b8152600401612c5e9190614535565b600060405180830381600087803b158015612c7857600080fd5b505af1158015612c8c573d6000803e3d6000fd5b505050505050949350505050565b604051806080016040528060008152602001600073ffffffffffffffffffffffffffffffffffffffff16815260200160608152602001600081525090565b60405180610120016040528060008152602001600073ffffffffffffffffffffffffffffffffffffffff168152602001600073ffffffffffffffffffffffffffffffffffffffff168152602001600073ffffffffffffffffffffffffffffffffffffffff168152602001600081526020016000815260200160008152602001600081526020016000151581525090565b610a2f8061455183390190565b6000604051905090565b600080fd5b600080fd5b600073ffffffffffffffffffffffffffffffffffffffff82169050919050565b6000612db482612d89565b9050919050565b612dc481612da9565b8114612dcf57600080fd5b50565b600081359050612de181612dbb565b92915050565b6000819050919050565b612dfa81612de7565b8114612e0557600080fd5b50565b600081359050612e1781612df1565b92915050565b6000612e2882612da9565b9050919050565b612e3881612e1d565b8114612e4357600080fd5b50565b600081359050612e5581612e2f565b92915050565b60008060008060808587031215612e7557612e74612d7f565b5b6000612e8387828801612dd2565b9450506020612e9487828801612e08565b9350506040612ea587828801612e46565b9250506060612eb687828801612e08565b91505092959194509250565b60008060408385031215612ed957612ed8612d7f565b5b6000612ee785828601612dd2565b9250506020612ef885828601612e08565b9150509250929050565b612f0b81612de7565b82525050565b612f1a81612da9565b82525050565b600081519050919050565b600082825260208201905092915050565b60005b83811015612f5a578082015181840152602081019050612f3f565b60008484015250505050565b6000601f19601f8301169050919050565b6000612f8282612f20565b612f8c8185612f2b565b9350612f9c818560208601612f3c565b612fa581612f66565b840191505092915050565b6000608082019050612fc56000830187612f02565b612fd26020830186612f11565b8181036040830152612fe48185612f77565b9050612ff36060830184612f02565b95945050505050565b60006020828403121561301257613011612d7f565b5b600061302084828501612e08565b91505092915050565b600080604083850312156130405761303f612d7f565b5b600061304e85828601612e08565b925050602061305f85828601612e08565b9150509250929050565b61307281612de7565b82525050565b61308181612da9565b82525050565b600082825260208201905092915050565b60006130a382612f20565b6130ad8185613087565b93506130bd818560208601612f3c565b6130c681612f66565b840191505092915050565b60006080830160008301516130e96000860182613069565b5060208301516130fc6020860182613078565b50604083015184820360408601526131148282613098565b91505060608301516131296060860182613069565b508091505092915050565b6000602082019050818103600083015261314e81846130d1565b905092915050565b6000819050919050565b600061317b61317661317184612d89565b613156565b612d89565b9050919050565b600061318d82613160565b9050919050565b600061319f82613182565b9050919050565b6131af81613194565b82525050565b60008115159050919050565b6131ca816131b5565b82525050565b6000610120820190506131e6600083018c612f02565b6131f3602083018b612f11565b613200604083018a612f11565b61320d60608301896131a6565b61321a6080830188612f02565b61322760a0830187612f02565b61323460c0830186612f02565b61324160e0830185612f02565b61324f6101008301846131c1565b9a9950505050505050505050565b60008060006060848603121561327657613275612d7f565b5b600061328486828701612dd2565b935050602061329586828701612e08565b92505060406132a686828701612e08565b9150509250925092565b60006020820190506132c56000830184612f11565b92915050565b600080fd5b600080fd5b7f4e487b7100000000000000000000000000000000000000000000000000000000600052604160045260246000fd5b61330d82612f66565b810181811067ffffffffffffffff8211171561332c5761332b6132d5565b5b80604052505050565b600061333f612d75565b905061334b8282613304565b919050565b600067ffffffffffffffff82111561336b5761336a6132d5565b5b61337482612f66565b9050602081019050919050565b82818337600083830152505050565b60006133a361339e84613350565b613335565b9050828152602081018484840111156133bf576133be6132d0565b5b6133ca848285613381565b509392505050565b600082601f8301126133e7576133e66132cb565b5b81356133f7848260208601613390565b91505092915050565b6000806000806080858703121561341a57613419612d7f565b5b600061342887828801612e46565b945050602085013567ffffffffffffffff81111561344957613448612d84565b5b613455878288016133d2565b935050604061346687828801612e08565b925050606061347787828801612e08565b91505092959194509250565b61348c81613194565b82525050565b61349b816131b5565b82525050565b610120820160008201516134b86000850182613069565b5060208201516134cb6020850182613078565b5060408201516134de6040850182613078565b5060608201516134f16060850182613483565b5060808201516135046080850182613069565b5060a082015161351760a0850182613069565b5060c082015161352a60c0850182613069565b5060e082015161353d60e0850182613069565b50610100820151613552610100850182613492565b50505050565b60006101208201905061356e60008301846134a1565b92915050565b60006020820190506135896000830184612f02565b92915050565b6000806000606084860312156135a8576135a7612d7f565b5b60006135b686828701612e08565b93505060206135c786828701612dd2565b92505060406135d886828701612e08565b9150509250925092565b6000602082840312156135f8576135f7612d7f565b5b600061360684828501612dd2565b91505092915050565b600060208201905061362460008301846131c1565b92915050565b6000602082840312156136405761363f612d7f565b5b600082013567ffffffffffffffff81111561365e5761365d612d84565b5b61366a848285016133d2565b91505092915050565b60006040820190506136886000830185612f11565b6136956020830184612f11565b9392505050565b6000815190506136ab81612df1565b92915050565b6000602082840312156136c7576136c6612d7f565b5b60006136d58482850161369c565b91505092915050565b7f4e6f7420656e6f75676820616c6c6f77616e6365000000000000000000000000600082015250565b6000613714601483612f2b565b915061371f826136de565b602082019050919050565b6000602082019050818103600083015261374381613707565b9050919050565b7f4e6f7420656e6f7567682062616c616e63650000000000000000000000000000600082015250565b6000613780601283612f2b565b915061378b8261374a565b602082019050919050565b600060208201905081810360008301526137af81613773565b9050919050565b7f416d6f756e74206d7573742062652067726561746572207468616e2030000000600082015250565b60006137ec601d83612f2b565b91506137f7826137b6565b602082019050919050565b6000602082019050818103600083015261381b816137df565b9050919050565b7f41727469636c6520646f6573206e6f7420657869737400000000000000000000600082015250565b6000613858601683612f2b565b915061386382613822565b602082019050919050565b600060208201905081810360008301526138878161384b565b9050919050565b7f4e487b7100000000000000000000000000000000000000000000000000000000600052603260045260246000fd5b60006060820190506138d26000830186612f11565b6138df6020830185612f11565b6138ec6040830184612f02565b949350505050565b6138fd816131b5565b811461390857600080fd5b50565b60008151905061391a816138f4565b92915050565b60006020828403121561393657613935612d7f565b5b60006139448482850161390b565b91505092915050565b7f4e487b7100000000000000000000000000000000000000000000000000000000600052601160045260246000fd5b600061398782612de7565b915061399283612de7565b92508282019050808211156139aa576139a961394d565b5b92915050565b60006060820190506139c56000830186612f11565b6139d26020830185612f02565b6139df6040830184612f02565b949350505050565b7f4e487b7100000000000000000000000000000000000000000000000000000000600052602260045260246000fd5b60006002820490506001821680613a2e57607f821691505b602082108103613a4157613a406139e7565b5b50919050565b7f4f6e6c79206f776e65722063616e2063616c6c20746869732066756e6374696f60008201527f6e2e000000000000000000000000000000000000000000000000000000000000602082015250565b6000613aa3602283612f2b565b9150613aae82613a47565b604082019050919050565b60006020820190508181036000830152613ad281613a96565b9050919050565b7f526f756e6420646f6573206e6f74206578697374000000000000000000000000600082015250565b6000613b0f601483612f2b565b9150613b1a82613ad9565b602082019050919050565b60006020820190508181036000830152613b3e81613b02565b9050919050565b7f526f756e6420697320616c726561647920616374697665000000000000000000600082015250565b6000613b7b601783612f2b565b9150613b8682613b45565b602082019050919050565b60006020820190508181036000830152613baa81613b6e565b9050919050565b7f526f756e642068617320656e6465640000000000000000000000000000000000600082015250565b6000613be7600f83612f2b565b9150613bf282613bb1565b602082019050919050565b60006020820190508181036000830152613c1681613bda565b9050919050565b7f4f6e6c7920617574686f722063616e206170706c7920666f7220726f756e6400600082015250565b6000613c53601f83612f2b565b9150613c5e82613c1d565b602082019050919050565b60006020820190508181036000830152613c8281613c46565b9050919050565b7f526f756e64206973206e6f742061637469766500000000000000000000000000600082015250565b6000613cbf601383612f2b565b9150613cca82613c89565b602082019050919050565b60006020820190508181036000830152613cee81613cb2565b9050919050565b600081549050613d0481613a16565b9050919050565b60008190508160005260206000209050919050565b60006020601f8301049050919050565b600082821b905092915050565b600060088302613d6d7fffffffffffffffffffffffffffffffffffffffffffffffffffffffffffffffff82613d30565b613d778683613d30565b95508019841693508086168417925050509392505050565b6000613daa613da5613da084612de7565b613156565b612de7565b9050919050565b6000819050919050565b613dc483613d8f565b613dd8613dd082613db1565b848454613d3d565b825550505050565b600090565b613ded613de0565b613df8818484613dbb565b505050565b5b81811015613e1c57613e11600082613de5565b600181019050613dfe565b5050565b601f821115613e6157613e3281613d0b565b613e3b84613d20565b81016020851015613e4a578190505b613e5e613e5685613d20565b830182613dfd565b50505b505050565b600082821c905092915050565b6000613e8460001984600802613e66565b1980831691505092915050565b6000613e9d8383613e73565b9150826002028217905092915050565b818103613ebb575050613f93565b613ec482613cf5565b67ffffffffffffffff811115613edd57613edc6132d5565b5b613ee78254613a16565b613ef2828285613e20565b6000601f831160018114613f215760008415613f0f578287015490505b613f198582613e91565b865550613f8c565b601f198416613f2f87613d0b565b9650613f3a86613d0b565b60005b82811015613f6257848901548255600182019150600185019450602081019050613f3d565b86831015613f7f5784890154613f7b601f891682613e73565b8355505b6001600288020188555050505b5050505050505b565b7f53746172742064617465206d757374206265206265666f726520656e6420646160008201527f7465000000000000000000000000000000000000000000000000000000000000602082015250565b6000613ff1602283612f2b565b9150613ffc82613f95565b604082019050919050565b6000602082019050818103600083015261402081613fe4565b9050919050565b7f456e642064617465206d75737420626520696e20746865206675747572650000600082015250565b600061405d601e83612f2b565b915061406882614027565b602082019050919050565b6000602082019050818103600083015261408c81614050565b9050919050565b7f4e6f2061727469636c657320696e20726f756e64000000000000000000000000600082015250565b60006140c9601483612f2b565b91506140d482614093565b602082019050919050565b600060208201905081810360008301526140f8816140bc565b9050919050565b60008160011c9050919050565b6000808291508390505b6001851115614156578086048111156141325761413161394d565b5b60018516156141415780820291505b808102905061414f856140ff565b9450614116565b94509492505050565b60008261416f576001905061422b565b8161417d576000905061422b565b8160018114614193576002811461419d576141cc565b600191505061422b565b60ff8411156141af576141ae61394d565b5b8360020a9150848211156141c6576141c561394d565b5b5061422b565b5060208310610133831016604e8410600b84101617156142015782820a9050838111156141fc576141fb61394d565b5b61422b565b61420e848484600161410c565b925090508184048111156142255761422461394d565b5b81810290505b9392505050565b600060ff82169050919050565b600061424a82612de7565b915061425583614232565b92506142827fffffffffffffffffffffffffffffffffffffffffffffffffffffffffffffffff848461415f565b905092915050565b600061429582612de7565b91506142a083612de7565b92508282026142ae81612de7565b915082820484148315176142c5576142c461394d565b5b5092915050565b7f4e487b7100000000000000000000000000000000000000000000000000000000600052601260045260246000fd5b600061430682612de7565b915061431183612de7565b925082614321576143206142cc565b5b828204905092915050565b60006040820190506143416000830185612f11565b61434e6020830184612f02565b9392505050565b600061436082612de7565b91507fffffffffffffffffffffffffffffffffffffffffffffffffffffffffffffffff82036143925761439161394d565b5b600182019050919050565b6143a682612f20565b67ffffffffffffffff8111156143bf576143be6132d5565b5b6143c98254613a16565b6143d4828285613e20565b600060209050601f83116001811461440757600084156143f5578287015190505b6143ff8582613e91565b865550614467565b601f19841661441586613d0b565b60005b8281101561443d57848901518255600182019150602085019450602081019050614418565b8683101561445a5784890151614456601f891682613e73565b8355505b6001600288020188555050505b505050505050565b600060408201905081810360008301526144898185612f77565b90506144986020830184612f02565b9392505050565b600081905092915050565b60006144b582612f20565b6144bf818561449f565b93506144cf818560208601612f3c565b80840191505092915050565b6000819050919050565b6144f66144f182612de7565b6144db565b82525050565b600061450882866144aa565b915061451482856144e5565b60208201915061452482846144e5565b602082019150819050949350505050565b600060208201905061454a60008301846131a6565b9291505056fe608060405234801561001057600080fd5b5033600160006101000a81548173ffffffffffffffffffffffffffffffffffffffff021916908373ffffffffffffffffffffffffffffffffffffffff1602179055506109ce806100616000396000f3fe608060405234801561001057600080fd5b506004361061004c5760003560e01c80638da5cb5b14610051578063c32d316c1461006f578063c4d66de81461009f578063fc0c546a146100bb575b600080fd5b6100596100d9565b6040516100669190610501565b60405180910390f35b61008960048036038101906100849190610583565b6100ff565b60405161009691906105de565b60405180910390f35b6100b960048036038101906100b49190610637565b6103c9565b005b6100c361049c565b6040516100d091906106c3565b60405180910390f35b600160009054906101000a900473ffffffffffffffffffffffffffffffffffffffff1681565b6000600160009054906101000a900473ffffffffffffffffffffffffffffffffffffffff1673ffffffffffffffffffffffffffffffffffffffff163373ffffffffffffffffffffffffffffffffffffffff1614610191576040517f08c379a000000000000000000000000000000000000000000000000000000000815260040161018890610761565b60405180910390fd5b8160008054906101000a900473ffffffffffffffffffffffffffffffffffffffff1673ffffffffffffffffffffffffffffffffffffffff166370a08231306040518263ffffffff1660e01b81526004016101eb9190610501565b602060405180830381865afa158015610208573d6000803e3d6000fd5b505050506040513d601f19601f8201168201806040525081019061022c9190610796565b101561026d576040517f08c379a00000000000000000000000000000000000000000000000000000000081526004016102649061080f565b60405180910390fd5b600073ffffffffffffffffffffffffffffffffffffffff168373ffffffffffffffffffffffffffffffffffffffff16036102dc576040517f08c379a00000000000000000000000000000000000000000000000000000000081526004016102d39061087b565b60405180910390fd5b60008060009054906101000a900473ffffffffffffffffffffffffffffffffffffffff1673ffffffffffffffffffffffffffffffffffffffff1663a9059cbb85856040518363ffffffff1660e01b815260040161033a9291906108aa565b6020604051808303816000875af1158015610359573d6000803e3d6000fd5b505050506040513d601f19601f8201168201806040525081019061037d91906108ff565b9050806103bf576040517f08c379a00000000000000000000000000000000000000000000000000000000081526004016103b690610978565b60405180910390fd5b8091505092915050565b600160009054906101000a900473ffffffffffffffffffffffffffffffffffffffff1673ffffffffffffffffffffffffffffffffffffffff163373ffffffffffffffffffffffffffffffffffffffff1614610459576040517f08c379a000000000000000000000000000000000000000000000000000000000815260040161045090610761565b60405180910390fd5b806000806101000a81548173ffffffffffffffffffffffffffffffffffffffff021916908373ffffffffffffffffffffffffffffffffffffffff16021790555050565b60008054906101000a900473ffffffffffffffffffffffffffffffffffffffff1681565b600073ffffffffffffffffffffffffffffffffffffffff82169050919050565b60006104eb826104c0565b9050919050565b6104fb816104e0565b82525050565b600060208201905061051660008301846104f2565b92915050565b600080fd5b61052a816104e0565b811461053557600080fd5b50565b60008135905061054781610521565b92915050565b6000819050919050565b6105608161054d565b811461056b57600080fd5b50565b60008135905061057d81610557565b92915050565b6000806040838503121561059a5761059961051c565b5b60006105a885828601610538565b92505060206105b98582860161056e565b9150509250929050565b60008115159050919050565b6105d8816105c3565b82525050565b60006020820190506105f360008301846105cf565b92915050565b6000610604826104e0565b9050919050565b610614816105f9565b811461061f57600080fd5b50565b6000813590506106318161060b565b92915050565b60006020828403121561064d5761064c61051c565b5b600061065b84828501610622565b91505092915050565b6000819050919050565b600061068961068461067f846104c0565b610664565b6104c0565b9050919050565b600061069b8261066e565b9050919050565b60006106ad82610690565b9050919050565b6106bd816106a2565b82525050565b60006020820190506106d860008301846106b4565b92915050565b600082825260208201905092915050565b7f4f6e6c79206f776e65722063616e2063616c6c20746869732066756e6374696f60008201527f6e2e000000000000000000000000000000000000000000000000000000000000602082015250565b600061074b6022836106de565b9150610756826106ef565b604082019050919050565b6000602082019050818103600083015261077a8161073e565b9050919050565b60008151905061079081610557565b92915050565b6000602082840312156107ac576107ab61051c565b5b60006107ba84828501610781565b91505092915050565b7f4e6f7420656e6f7567682062616c616e63650000000000000000000000000000600082015250565b60006107f96012836106de565b9150610804826107c3565b602082019050919050565b60006020820190508181036000830152610828816107ec565b9050919050565b7f496e76616c696420616464726573730000000000000000000000000000000000600082015250565b6000610865600f836106de565b91506108708261082f565b602082019050919050565b6000602082019050818103600083015261089481610858565b9050919050565b6108a48161054d565b82525050565b60006040820190506108bf60008301856104f2565b6108cc602083018461089b565b9392505050565b6108dc816105c3565b81146108e757600080fd5b50565b6000815190506108f9816108d3565b92915050565b6000602082840312156109155761091461051c565b5b6000610923848285016108ea565b91505092915050565b7f4661696c656420746f207472616e7366657220746f6b656e0000000000000000600082015250565b60006109626018836106de565b915061096d8261092c565b602082019050919050565b6000602082019050818103600083015261099181610955565b905091905056fea2646970667358221220a498ed6e18b6db443c3eb586fc2f3a2175da75b95df3546e64762883044644da64736f6c63430008130033a2646970667358221220e4d5f1093878b318830cdfed8cf7c5e202db1c969767b0531474ecc624973ceb64736f6c63430008130033",
  "linkReferences": {},
  "deployedLinkReferences": {}
}