{
  "_format": "hh-sol-artifact-1",
  "contractName": "PledgePost",
  "sourceName": "contracts/PledgePost.sol",
  "abi": [
    {
      "inputs": [],
      "stateMutability": "nonpayable",
      "type": "constructor"
    },
    {
      "anonymous": false,
      "inputs": [
        {
          "indexed": true,
          "internalType": "uint256",
          "name": "roundId",
          "type": "uint256"
        },
        {
          "indexed": false,
          "internalType": "address",
          "name": "recipient",
          "type": "address"
        },
        {
          "indexed": false,
          "internalType": "uint256",
          "name": "articleId",
          "type": "uint256"
        },
        {
          "indexed": false,
          "internalType": "uint256",
          "name": "amount",
          "type": "uint256"
        }
      ],
      "name": "Allocated",
      "type": "event"
    },
    {
      "anonymous": false,
      "inputs": [
        {
          "indexed": true,
          "internalType": "address",
          "name": "author",
          "type": "address"
        },
        {
          "indexed": true,
          "internalType": "address",
          "name": "from",
          "type": "address"
        },
        {
          "indexed": false,
          "internalType": "uint256",
          "name": "articleId",
          "type": "uint256"
        },
        {
          "indexed": false,
          "internalType": "uint256",
          "name": "amount",
          "type": "uint256"
        }
      ],
      "name": "ArticleDonated",
      "type": "event"
    },
    {
      "anonymous": false,
      "inputs": [
        {
          "indexed": true,
          "internalType": "address",
          "name": "author",
          "type": "address"
        },
        {
          "indexed": false,
          "internalType": "string",
          "name": "content",
          "type": "string"
        },
        {
          "indexed": false,
          "internalType": "uint256",
          "name": "articleId",
          "type": "uint256"
        }
      ],
      "name": "ArticlePosted",
      "type": "event"
    },
    {
      "anonymous": false,
      "inputs": [
        {
          "indexed": true,
          "internalType": "address",
          "name": "author",
          "type": "address"
        },
        {
          "indexed": false,
          "internalType": "uint256",
          "name": "articleId",
          "type": "uint256"
        },
        {
          "indexed": false,
          "internalType": "uint256",
          "name": "roundId",
          "type": "uint256"
        }
      ],
      "name": "RoundApplied",
      "type": "event"
    },
    {
      "anonymous": false,
      "inputs": [
        {
          "indexed": true,
          "internalType": "address",
          "name": "owner",
          "type": "address"
        },
        {
          "indexed": false,
          "internalType": "address",
          "name": "ipoolAddress",
          "type": "address"
        },
        {
          "indexed": false,
          "internalType": "uint256",
          "name": "roundId",
          "type": "uint256"
        },
        {
          "indexed": false,
          "internalType": "string",
          "name": "name",
          "type": "string"
        },
        {
          "indexed": false,
          "internalType": "uint256",
          "name": "startDate",
          "type": "uint256"
        },
        {
          "indexed": false,
          "internalType": "uint256",
          "name": "endDate",
          "type": "uint256"
        }
      ],
      "name": "RoundCreated",
      "type": "event"
    },
    {
      "inputs": [
        {
          "internalType": "uint256",
          "name": "_roundId",
          "type": "uint256"
        }
      ],
      "name": "Allocate",
      "outputs": [],
      "stateMutability": "nonpayable",
      "type": "function"
    },
    {
      "inputs": [
        {
          "internalType": "uint256",
          "name": "_roundId",
          "type": "uint256"
        },
        {
          "internalType": "address",
          "name": "_author",
          "type": "address"
        },
        {
          "internalType": "uint256",
          "name": "_articleId",
          "type": "uint256"
        }
      ],
      "name": "acceptApplication",
      "outputs": [],
      "stateMutability": "nonpayable",
      "type": "function"
    },
    {
      "inputs": [
        {
          "internalType": "uint256",
          "name": "_roundId",
          "type": "uint256"
        }
      ],
      "name": "activateRound",
      "outputs": [],
      "stateMutability": "nonpayable",
      "type": "function"
    },
    {
      "inputs": [
        {
          "internalType": "address",
          "name": "",
          "type": "address"
        },
        {
          "internalType": "uint256",
          "name": "",
          "type": "uint256"
        },
        {
          "internalType": "uint256",
          "name": "",
          "type": "uint256"
        }
      ],
      "name": "applicationStatusForRound",
      "outputs": [
        {
          "internalType": "enum PledgePost.ApplicationStatus",
          "name": "",
          "type": "uint8"
        }
      ],
      "stateMutability": "view",
      "type": "function"
    },
    {
      "inputs": [
        {
          "internalType": "uint256",
          "name": "_roundId",
          "type": "uint256"
        },
        {
          "internalType": "uint256",
          "name": "_articleId",
          "type": "uint256"
        }
      ],
      "name": "applyForRound",
      "outputs": [],
      "stateMutability": "nonpayable",
      "type": "function"
    },
    {
      "inputs": [
        {
          "internalType": "address",
          "name": "",
          "type": "address"
        },
        {
          "internalType": "uint256",
          "name": "",
          "type": "uint256"
        },
        {
          "internalType": "uint256",
          "name": "",
          "type": "uint256"
        }
      ],
      "name": "articleDonators",
      "outputs": [
        {
          "internalType": "address",
          "name": "",
          "type": "address"
        }
      ],
      "stateMutability": "view",
      "type": "function"
    },
    {
      "inputs": [
        {
          "internalType": "address",
          "name": "",
          "type": "address"
        },
        {
          "internalType": "uint256",
          "name": "",
          "type": "uint256"
        }
      ],
      "name": "authorArticles",
      "outputs": [
        {
          "internalType": "uint256",
          "name": "id",
          "type": "uint256"
        },
        {
          "internalType": "address",
          "name": "author",
          "type": "address"
        },
        {
          "internalType": "string",
          "name": "content",
          "type": "string"
        },
        {
          "internalType": "uint256",
          "name": "donationsReceived",
          "type": "uint256"
        }
      ],
      "stateMutability": "view",
      "type": "function"
    },
    {
      "inputs": [
        {
          "internalType": "address",
          "name": "",
          "type": "address"
        },
        {
          "internalType": "uint256",
          "name": "",
          "type": "uint256"
        }
      ],
      "name": "authorToArticleIdToRound",
      "outputs": [
        {
          "internalType": "uint256",
          "name": "id",
          "type": "uint256"
        },
        {
          "internalType": "address",
          "name": "owner",
          "type": "address"
        },
        {
          "internalType": "string",
          "name": "name",
          "type": "string"
        },
        {
          "internalType": "bytes",
          "name": "description",
          "type": "bytes"
        },
        {
          "internalType": "address",
          "name": "poolAddress",
          "type": "address"
        },
        {
          "internalType": "contract IERC20",
          "name": "poolToken",
          "type": "address"
        },
        {
          "internalType": "uint256",
          "name": "poolAmount",
          "type": "uint256"
        },
        {
          "internalType": "uint256",
          "name": "startDate",
          "type": "uint256"
        },
        {
          "internalType": "uint256",
          "name": "endDate",
          "type": "uint256"
        },
        {
          "internalType": "uint256",
          "name": "createdTimestamp",
          "type": "uint256"
        },
        {
          "internalType": "bool",
          "name": "isActive",
          "type": "bool"
        }
      ],
      "stateMutability": "view",
      "type": "function"
    },
    {
      "inputs": [
        {
          "internalType": "address",
          "name": "",
          "type": "address"
        }
      ],
      "name": "authorTotalDonations",
      "outputs": [
        {
          "internalType": "uint256",
          "name": "",
          "type": "uint256"
        }
      ],
      "stateMutability": "view",
      "type": "function"
    },
    {
      "inputs": [
        {
          "internalType": "address",
          "name": "_sender",
          "type": "address"
        },
        {
          "internalType": "address",
          "name": "_author",
          "type": "address"
        },
        {
          "internalType": "uint256",
          "name": "_articleId",
          "type": "uint256"
        }
      ],
      "name": "checkOwner",
      "outputs": [
        {
          "internalType": "bool",
          "name": "",
          "type": "bool"
        }
      ],
      "stateMutability": "view",
      "type": "function"
    },
    {
      "inputs": [
        {
          "internalType": "contract IERC20",
          "name": "_token",
          "type": "address"
        },
        {
          "internalType": "string",
          "name": "_name",
          "type": "string"
        },
        {
          "internalType": "string",
          "name": "_description",
          "type": "string"
        },
        {
          "internalType": "uint256",
          "name": "_startDate",
          "type": "uint256"
        },
        {
          "internalType": "uint256",
          "name": "_endDate",
          "type": "uint256"
        }
      ],
      "name": "createRound",
      "outputs": [
        {
          "components": [
            {
              "internalType": "uint256",
              "name": "id",
              "type": "uint256"
            },
            {
              "internalType": "address",
              "name": "owner",
              "type": "address"
            },
            {
              "internalType": "string",
              "name": "name",
              "type": "string"
            },
            {
              "internalType": "bytes",
              "name": "description",
              "type": "bytes"
            },
            {
              "internalType": "address",
              "name": "poolAddress",
              "type": "address"
            },
            {
              "internalType": "contract IERC20",
              "name": "poolToken",
              "type": "address"
            },
            {
              "internalType": "uint256",
              "name": "poolAmount",
              "type": "uint256"
            },
            {
              "internalType": "uint256",
              "name": "startDate",
              "type": "uint256"
            },
            {
              "internalType": "uint256",
              "name": "endDate",
              "type": "uint256"
            },
            {
              "internalType": "uint256",
              "name": "createdTimestamp",
              "type": "uint256"
            },
            {
              "internalType": "bool",
              "name": "isActive",
              "type": "bool"
            }
          ],
          "internalType": "struct PledgePost.Round",
          "name": "",
          "type": "tuple"
        }
      ],
      "stateMutability": "nonpayable",
      "type": "function"
    },
    {
      "inputs": [
        {
          "internalType": "uint256",
          "name": "_roundId",
          "type": "uint256"
        }
      ],
      "name": "deactivateRound",
      "outputs": [],
      "stateMutability": "nonpayable",
      "type": "function"
    },
    {
      "inputs": [
        {
          "internalType": "uint256",
          "name": "_roundId",
          "type": "uint256"
        },
        {
          "internalType": "address",
          "name": "_author",
          "type": "address"
        },
        {
          "internalType": "uint256",
          "name": "_articleId",
          "type": "uint256"
        }
      ],
      "name": "denyApplication",
      "outputs": [],
      "stateMutability": "nonpayable",
      "type": "function"
    },
    {
      "inputs": [
        {
          "internalType": "uint256",
          "name": "_roundId",
          "type": "uint256"
        },
        {
          "internalType": "uint256",
          "name": "_amount",
          "type": "uint256"
        }
      ],
      "name": "deposit",
      "outputs": [
        {
          "internalType": "bool",
          "name": "success",
          "type": "bool"
        }
      ],
      "stateMutability": "nonpayable",
      "type": "function"
    },
    {
      "inputs": [
        {
          "internalType": "address",
          "name": "_author",
          "type": "address"
        },
        {
          "internalType": "uint256",
          "name": "_articleId",
          "type": "uint256"
        },
        {
          "internalType": "contract IERC20",
          "name": "_token",
          "type": "address"
        },
        {
          "internalType": "uint256",
          "name": "_amount",
          "type": "uint256"
        }
      ],
      "name": "donateToArticle",
      "outputs": [],
      "stateMutability": "nonpayable",
      "type": "function"
    },
    {
      "inputs": [
        {
          "internalType": "address",
          "name": "_author",
          "type": "address"
        }
      ],
      "name": "getAllAuthorArticle",
      "outputs": [
        {
          "components": [
            {
              "internalType": "uint256",
              "name": "id",
              "type": "uint256"
            },
            {
              "internalType": "address",
              "name": "author",
              "type": "address"
            },
            {
              "internalType": "string",
              "name": "content",
              "type": "string"
            },
            {
              "internalType": "uint256",
              "name": "donationsReceived",
              "type": "uint256"
            }
          ],
          "internalType": "struct PledgePost.Article[]",
          "name": "",
          "type": "tuple[]"
        }
      ],
      "stateMutability": "view",
      "type": "function"
    },
    {
      "inputs": [],
      "name": "getAllRound",
      "outputs": [
        {
          "components": [
            {
              "internalType": "uint256",
              "name": "id",
              "type": "uint256"
            },
            {
              "internalType": "address",
              "name": "owner",
              "type": "address"
            },
            {
              "internalType": "string",
              "name": "name",
              "type": "string"
            },
            {
              "internalType": "bytes",
              "name": "description",
              "type": "bytes"
            },
            {
              "internalType": "address",
              "name": "poolAddress",
              "type": "address"
            },
            {
              "internalType": "contract IERC20",
              "name": "poolToken",
              "type": "address"
            },
            {
              "internalType": "uint256",
              "name": "poolAmount",
              "type": "uint256"
            },
            {
              "internalType": "uint256",
              "name": "startDate",
              "type": "uint256"
            },
            {
              "internalType": "uint256",
              "name": "endDate",
              "type": "uint256"
            },
            {
              "internalType": "uint256",
              "name": "createdTimestamp",
              "type": "uint256"
            },
            {
              "internalType": "bool",
              "name": "isActive",
              "type": "bool"
            }
          ],
          "internalType": "struct PledgePost.Round[]",
          "name": "",
          "type": "tuple[]"
        }
      ],
      "stateMutability": "view",
      "type": "function"
    },
    {
      "inputs": [
        {
          "internalType": "uint256",
          "name": "_roundId",
          "type": "uint256"
        },
        {
          "internalType": "address",
          "name": "_author",
          "type": "address"
        },
        {
          "internalType": "uint256",
          "name": "_articleId",
          "type": "uint256"
        }
      ],
      "name": "getAllocation",
      "outputs": [
        {
          "internalType": "uint256",
          "name": "",
          "type": "uint256"
        }
      ],
      "stateMutability": "view",
      "type": "function"
    },
    {
      "inputs": [
        {
          "internalType": "uint256",
          "name": "_roundId",
          "type": "uint256"
        },
        {
          "internalType": "address",
          "name": "_author",
          "type": "address"
        },
        {
          "internalType": "uint256",
          "name": "_articleId",
          "type": "uint256"
        }
      ],
      "name": "getApplicationStatus",
      "outputs": [
        {
          "internalType": "enum PledgePost.ApplicationStatus",
          "name": "",
          "type": "uint8"
        }
      ],
      "stateMutability": "view",
      "type": "function"
    },
    {
      "inputs": [
        {
          "internalType": "uint256",
          "name": "_roundId",
          "type": "uint256"
        },
        {
          "internalType": "uint256",
          "name": "_index",
          "type": "uint256"
        }
      ],
      "name": "getAppliedArticle",
      "outputs": [
        {
          "components": [
            {
              "internalType": "uint256",
              "name": "id",
              "type": "uint256"
            },
            {
              "internalType": "address",
              "name": "author",
              "type": "address"
            },
            {
              "internalType": "string",
              "name": "content",
              "type": "string"
            },
            {
              "internalType": "uint256",
              "name": "donationsReceived",
              "type": "uint256"
            }
          ],
          "internalType": "struct PledgePost.Article",
          "name": "",
          "type": "tuple"
        }
      ],
      "stateMutability": "view",
      "type": "function"
    },
    {
      "inputs": [
        {
          "internalType": "address",
          "name": "_author",
          "type": "address"
        },
        {
          "internalType": "uint256",
          "name": "_articleId",
          "type": "uint256"
        }
      ],
      "name": "getAppliedRound",
      "outputs": [
        {
          "components": [
            {
              "internalType": "uint256",
              "name": "id",
              "type": "uint256"
            },
            {
              "internalType": "address",
              "name": "owner",
              "type": "address"
            },
            {
              "internalType": "string",
              "name": "name",
              "type": "string"
            },
            {
              "internalType": "bytes",
              "name": "description",
              "type": "bytes"
            },
            {
              "internalType": "address",
              "name": "poolAddress",
              "type": "address"
            },
            {
              "internalType": "contract IERC20",
              "name": "poolToken",
              "type": "address"
            },
            {
              "internalType": "uint256",
              "name": "poolAmount",
              "type": "uint256"
            },
            {
              "internalType": "uint256",
              "name": "startDate",
              "type": "uint256"
            },
            {
              "internalType": "uint256",
              "name": "endDate",
              "type": "uint256"
            },
            {
              "internalType": "uint256",
              "name": "createdTimestamp",
              "type": "uint256"
            },
            {
              "internalType": "bool",
              "name": "isActive",
              "type": "bool"
            }
          ],
          "internalType": "struct PledgePost.Round",
          "name": "",
          "type": "tuple"
        }
      ],
      "stateMutability": "view",
      "type": "function"
    },
    {
      "inputs": [
        {
          "internalType": "address",
          "name": "_author",
          "type": "address"
        },
        {
          "internalType": "uint256",
          "name": "_articleId",
          "type": "uint256"
        }
      ],
      "name": "getAuthorArticle",
      "outputs": [
        {
          "components": [
            {
              "internalType": "uint256",
              "name": "id",
              "type": "uint256"
            },
            {
              "internalType": "address",
              "name": "author",
              "type": "address"
            },
            {
              "internalType": "string",
              "name": "content",
              "type": "string"
            },
            {
              "internalType": "uint256",
              "name": "donationsReceived",
              "type": "uint256"
            }
          ],
          "internalType": "struct PledgePost.Article",
          "name": "",
          "type": "tuple"
        }
      ],
      "stateMutability": "view",
      "type": "function"
    },
    {
      "inputs": [
        {
          "internalType": "address",
          "name": "_author",
          "type": "address"
        },
        {
          "internalType": "uint256",
          "name": "_articleId",
          "type": "uint256"
        }
      ],
      "name": "getDonatedAmount",
      "outputs": [
        {
          "internalType": "uint256",
          "name": "",
          "type": "uint256"
        }
      ],
      "stateMutability": "view",
      "type": "function"
    },
    {
      "inputs": [
        {
          "internalType": "uint256",
          "name": "_roundId",
          "type": "uint256"
        },
        {
          "internalType": "address",
          "name": "_author",
          "type": "address"
        },
        {
          "internalType": "uint256",
          "name": "_articleId",
          "type": "uint256"
        },
        {
          "internalType": "uint256",
          "name": "_amount",
          "type": "uint256"
        }
      ],
      "name": "getEstimatedAmount",
      "outputs": [
        {
          "internalType": "uint256",
          "name": "",
          "type": "uint256"
        }
      ],
      "stateMutability": "view",
      "type": "function"
    },
    {
      "inputs": [
        {
          "internalType": "uint256",
          "name": "_roundId",
          "type": "uint256"
        },
        {
          "internalType": "address",
          "name": "_author",
          "type": "address"
        },
        {
          "internalType": "uint256",
          "name": "_articleId",
          "type": "uint256"
        }
      ],
      "name": "getMatchingAmount",
      "outputs": [
        {
          "internalType": "uint256",
          "name": "",
          "type": "uint256"
        }
      ],
      "stateMutability": "view",
      "type": "function"
    },
    {
      "inputs": [
        {
          "internalType": "address",
          "name": "_author",
          "type": "address"
        },
        {
          "internalType": "uint256",
          "name": "_articleId",
          "type": "uint256"
        },
        {
          "internalType": "uint256",
          "name": "_roundId",
          "type": "uint256"
        }
      ],
      "name": "getRecievedDonationsWithinRound",
      "outputs": [
        {
          "internalType": "uint256",
          "name": "",
          "type": "uint256"
        }
      ],
      "stateMutability": "view",
      "type": "function"
    },
    {
      "inputs": [
        {
          "internalType": "uint256",
          "name": "_roundId",
          "type": "uint256"
        }
      ],
      "name": "getRound",
      "outputs": [
        {
          "components": [
            {
              "internalType": "uint256",
              "name": "id",
              "type": "uint256"
            },
            {
              "internalType": "address",
              "name": "owner",
              "type": "address"
            },
            {
              "internalType": "string",
              "name": "name",
              "type": "string"
            },
            {
              "internalType": "bytes",
              "name": "description",
              "type": "bytes"
            },
            {
              "internalType": "address",
              "name": "poolAddress",
              "type": "address"
            },
            {
              "internalType": "contract IERC20",
              "name": "poolToken",
              "type": "address"
            },
            {
              "internalType": "uint256",
              "name": "poolAmount",
              "type": "uint256"
            },
            {
              "internalType": "uint256",
              "name": "startDate",
              "type": "uint256"
            },
            {
              "internalType": "uint256",
              "name": "endDate",
              "type": "uint256"
            },
            {
              "internalType": "uint256",
              "name": "createdTimestamp",
              "type": "uint256"
            },
            {
              "internalType": "bool",
              "name": "isActive",
              "type": "bool"
            }
          ],
          "internalType": "struct PledgePost.Round",
          "name": "",
          "type": "tuple"
        }
      ],
      "stateMutability": "view",
      "type": "function"
    },
    {
      "inputs": [],
      "name": "getRoundLength",
      "outputs": [
        {
          "internalType": "uint256",
          "name": "",
          "type": "uint256"
        }
      ],
      "stateMutability": "view",
      "type": "function"
    },
    {
      "inputs": [
        {
          "internalType": "uint256",
          "name": "x",
          "type": "uint256"
        }
      ],
      "name": "getSquareRoot",
      "outputs": [
        {
          "internalType": "uint256",
          "name": "",
          "type": "uint256"
        }
      ],
      "stateMutability": "pure",
      "type": "function"
    },
    {
      "inputs": [
        {
          "internalType": "uint256",
          "name": "_roundId",
          "type": "uint256"
        }
      ],
      "name": "getTotalSquareSqrtSum",
      "outputs": [
        {
          "internalType": "uint256",
          "name": "",
          "type": "uint256"
        }
      ],
      "stateMutability": "view",
      "type": "function"
    },
    {
      "inputs": [
        {
          "internalType": "uint256",
          "name": "",
          "type": "uint256"
        },
        {
          "internalType": "address",
          "name": "",
          "type": "address"
        },
        {
          "internalType": "uint256",
          "name": "",
          "type": "uint256"
        }
      ],
      "name": "matchingAmounts",
      "outputs": [
        {
          "internalType": "uint256",
          "name": "",
          "type": "uint256"
        }
      ],
      "stateMutability": "view",
      "type": "function"
    },
    {
      "inputs": [],
      "name": "nft",
      "outputs": [
        {
          "internalType": "contract IPledgePostERC721",
          "name": "",
          "type": "address"
        }
      ],
      "stateMutability": "view",
      "type": "function"
    },
    {
      "inputs": [],
      "name": "owner",
      "outputs": [
        {
          "internalType": "address",
          "name": "",
          "type": "address"
        }
      ],
      "stateMutability": "view",
      "type": "function"
    },
    {
      "inputs": [
        {
          "internalType": "string",
          "name": "_content",
          "type": "string"
        }
      ],
      "name": "postArticle",
      "outputs": [
        {
          "internalType": "uint256",
          "name": "",
          "type": "uint256"
        }
      ],
      "stateMutability": "nonpayable",
      "type": "function"
    },
    {
      "inputs": [
        {
          "internalType": "address",
          "name": "",
          "type": "address"
        },
        {
          "internalType": "uint256",
          "name": "",
          "type": "uint256"
        },
        {
          "internalType": "uint256",
          "name": "",
          "type": "uint256"
        }
      ],
      "name": "recievedDonationsWithinRound",
      "outputs": [
        {
          "internalType": "uint256",
          "name": "",
          "type": "uint256"
        }
      ],
      "stateMutability": "view",
      "type": "function"
    },
    {
      "inputs": [
        {
          "internalType": "uint256",
          "name": "",
          "type": "uint256"
        },
        {
          "internalType": "uint256",
          "name": "",
          "type": "uint256"
        }
      ],
      "name": "roundArticles",
      "outputs": [
        {
          "internalType": "uint256",
          "name": "id",
          "type": "uint256"
        },
        {
          "internalType": "address",
          "name": "author",
          "type": "address"
        },
        {
          "internalType": "string",
          "name": "content",
          "type": "string"
        },
        {
          "internalType": "uint256",
          "name": "donationsReceived",
          "type": "uint256"
        }
      ],
      "stateMutability": "view",
      "type": "function"
    },
    {
      "inputs": [
        {
          "internalType": "uint256",
          "name": "",
          "type": "uint256"
        }
      ],
      "name": "rounds",
      "outputs": [
        {
          "internalType": "uint256",
          "name": "id",
          "type": "uint256"
        },
        {
          "internalType": "address",
          "name": "owner",
          "type": "address"
        },
        {
          "internalType": "string",
          "name": "name",
          "type": "string"
        },
        {
          "internalType": "bytes",
          "name": "description",
          "type": "bytes"
        },
        {
          "internalType": "address",
          "name": "poolAddress",
          "type": "address"
        },
        {
          "internalType": "contract IERC20",
          "name": "poolToken",
          "type": "address"
        },
        {
          "internalType": "uint256",
          "name": "poolAmount",
          "type": "uint256"
        },
        {
          "internalType": "uint256",
          "name": "startDate",
          "type": "uint256"
        },
        {
          "internalType": "uint256",
          "name": "endDate",
          "type": "uint256"
        },
        {
          "internalType": "uint256",
          "name": "createdTimestamp",
          "type": "uint256"
        },
        {
          "internalType": "bool",
          "name": "isActive",
          "type": "bool"
        }
      ],
      "stateMutability": "view",
      "type": "function"
    }
  ],
  "bytecode": "0x608060405260006009553480156200001657600080fd5b50600a80546001600160a01b031916331790556040513090620000399062000103565b6001600160a01b0390911681526040602082018190526052908201527f68747470733a2f2f6261667962656965763474676b747674676f35686a6d667560608201527f6b6a3570373669773575796833626973753769766b3673346e376d667972716d6080820152717666342e697066732e647765622e6c696e6b60701b60a082015260c001604051809103906000f080158015620000dc573d6000803e3d6000fd5b50600b80546001600160a01b0319166001600160a01b039290921691909117905562000111565b61312c806200419f83390190565b61407e80620001216000396000f3fe608060405234801561001057600080fd5b50600436106102275760003560e01c80638ff4dd9411610130578063c727ed66116100b8578063e5df05cf1161007c578063e5df05cf1461056b578063f16255341461057e578063f1f6667514610591578063f9472689146105a4578063fe81a1f7146105d557600080fd5b8063c727ed66146104e9578063ce6236ca1461051d578063cecb2b0414610525578063db76c71014610545578063e2bbb1581461055857600080fd5b8063abb74ba5116100ff578063abb74ba51461046c578063afba9ada1461047f578063b283607b146104b0578063c0b50cb8146104c3578063c6fd06c7146104d657600080fd5b80638ff4dd941461041057806391cb292e1461042357806395e1a87214610446578063a4e60c0f1461045957600080fd5b806327a1de95116101b357806358440d7f1161018257806358440d7f146103a457806376c83753146103b75780638c65c81f146103ca5780638da5cb5b146103dd5780638f1327c0146103f057600080fd5b806327a1de95146103295780632da32fca1461035357806337cae80a1461036657806347ccca021461039157600080fd5b8063104dbc11116101fa578063104dbc11146102a257806314743e7e146102c25780631bfddd35146102d55780631c9bb65d146102e857806320fb90dd1461030957600080fd5b806302ed08651461022c57806305499b7a146102555780630fef03891461026a578063101a3cc41461027f575b600080fd5b61023f61023a366004612edb565b6105e8565b60405161024c9190612f29565b60405180910390f35b61025d6106e5565b60405161024c919061306e565b61027d6102783660046130d0565b6108e8565b005b61029261028d366004613118565b610d5c565b60405161024c9493929190613144565b6102b56102b036600461317f565b610e38565b60405161024c91906131e8565b61027d6102d036600461323d565b610f67565b61027d6102e3366004613256565b6110b0565b6102fb6102f6366004613278565b611401565b60405190815260200161024c565b61031c610317366004613118565b6114d3565b60405161024c91906132b5565b61033c610337366004613118565b611628565b60405161024c9b9a999897969594939291906132c8565b6102fb610361366004612edb565b6117b3565b61037961037436600461334b565b611911565b6040516001600160a01b03909116815260200161024c565b600b54610379906001600160a01b031681565b61027d6103b2366004612edb565b611956565b61031c6103c5366004613256565b611a20565b61033c6103d836600461323d565b611a9f565b600a54610379906001600160a01b031681565b6104036103fe36600461323d565b611ae5565b60405161024c9190613380565b61029261041e366004613256565b611d21565b610436610431366004613393565b611d3d565b604051901515815260200161024c565b610403610454366004613466565b611df9565b610403610467366004613118565b61213d565b6102fb61047a36600461334b565b612344565b6102fb61048d36600461334b565b600660209081526000938452604080852082529284528284209052825290205481565b6102fb6104be366004612edb565b612435565b6102fb6104d1366004613118565b612522565b61027d6104e436600461323d565b61259d565b61023f6104f736600461334b565b600560209081526000938452604080852082529284528284209052825290205460ff1681565b6009546102fb565b6102fb61053336600461317f565b60016020526000908152604090205481565b6102fb61055336600461323d565b612830565b610436610566366004613256565b61283b565b6102fb61057936600461323d565b612959565b61027d61058c36600461323d565b612a32565b61027d61059f366004612edb565b612b28565b6102fb6105b2366004612edb565b600760209081526000938452604080852082529284528284209052825290205481565b6102fb6105e33660046134ee565b612beb565b60006009548411156106155760405162461bcd60e51b815260040161060c90613523565b60405180910390fd5b600084116106355760405162461bcd60e51b815260040161060c90613551565b6001600160a01b038316600090815260208190526040902054821061066c5760405162461bcd60e51b815260040161060c90613588565b6001600160a01b038316600090815260046020908152604080832085845290915290205484146106ae5760405162461bcd60e51b815260040161060c906135b8565b506001600160a01b0382166000908152600560209081526040808320848452825280832086845290915290205460ff169392505050565b60606008805480602002602001604051908101604052809291908181526020016000905b828210156108df5760008481526020908190206040805161016081018252600b86029092018054835260018101546001600160a01b0316938301939093526002830180549293929184019161075d906135fd565b80601f0160208091040260200160405190810160405280929190818152602001828054610789906135fd565b80156107d65780601f106107ab576101008083540402835291602001916107d6565b820191906000526020600020905b8154815290600101906020018083116107b957829003601f168201915b505050505081526020016003820180546107ef906135fd565b80601f016020809104026020016040519081016040528092919081815260200182805461081b906135fd565b80156108685780601f1061083d57610100808354040283529160200191610868565b820191906000526020600020905b81548152906001019060200180831161084b57829003601f168201915b505050918352505060048201546001600160a01b03908116602080840191909152600584015490911660408301526006830154606083015260078301546080830152600883015460a0830152600983015460c0830152600a9092015460ff16151560e0909101529082526001929092019101610709565b50505050905090565b604051636eb1769f60e11b815233600482015230602482015281906001600160a01b0384169063dd62ed3e90604401602060405180830381865afa158015610934573d6000803e3d6000fd5b505050506040513d601f19601f820116820180604052508101906109589190613631565b101561099d5760405162461bcd60e51b81526020600482015260146024820152734e6f7420656e6f75676820616c6c6f77616e636560601b604482015260640161060c565b6040516370a0823160e01b815233600482015281906001600160a01b038416906370a0823190602401602060405180830381865afa1580156109e3573d6000803e3d6000fd5b505050506040513d601f19601f82011682018060405250810190610a079190613631565b1015610a4a5760405162461bcd60e51b81526020600482015260126024820152714e6f7420656e6f7567682062616c616e636560701b604482015260640161060c565b60008111610a9a5760405162461bcd60e51b815260206004820152601d60248201527f416d6f756e74206d7573742062652067726561746572207468616e2030000000604482015260640161060c565b6001600160a01b0384166000908152602081905260409020548310610ad15760405162461bcd60e51b815260040161060c90613588565b6001600160a01b0384166000908152602081905260408120805485908110610afb57610afb61364a565b6000918252602090912060049182020160018101546040516323b872dd60e01b815233938101939093526001600160a01b039081166024840152604483018590529092508416906323b872dd906064016020604051808303816000875af1158015610b6a573d6000803e3d6000fd5b505050506040513d601f19601f82011682018060405250810190610b8e9190613660565b506001600160a01b03851660009081526002602090815260408083208784528252822080546001810182559083529082200180546001600160a01b03191633179055600382018054849290610be4908490613698565b90915550506001600160a01b03851660009081526001602052604081208054849290610c11908490613698565b90915550506001600160a01b03851660009081526004602090815260408083208784529091529020600a81015460ff1615610c9157610c4f83612d1b565b6001600160a01b038716600090815260066020908152604080832089845282528083208554845290915281208054909190610c8b908490613698565b90915550505b604080518681526020810185905233916001600160a01b038916917f156f4e4409ddebc945c5614a72c50315673686ffb291cac167b0409de20f291b910160405180910390a3600b5460405163b85cbc7960e01b81526001600160a01b039091169063b85cbc7990610d109033908a908a9060028901906004016136ab565b6020604051808303816000875af1158015610d2f573d6000803e3d6000fd5b505050506040513d601f19601f82011682018060405250810190610d539190613631565b50505050505050565b60006020528160005260406000208181548110610d7857600080fd5b60009182526020909120600490910201805460018201546002830180549295506001600160a01b03909116935090610daf906135fd565b80601f0160208091040260200160405190810160405280929190818152602001828054610ddb906135fd565b8015610e285780601f10610dfd57610100808354040283529160200191610e28565b820191906000526020600020905b815481529060010190602001808311610e0b57829003601f168201915b5050505050908060030154905084565b6001600160a01b038116600090815260208181526040808320805482518185028101850190935280835260609492939192909184015b82821015610f5c57600084815260209081902060408051608081018252600486029092018054835260018101546001600160a01b03169383019390935260028301805492939291840191610ec1906135fd565b80601f0160208091040260200160405190810160405280929190818152602001828054610eed906135fd565b8015610f3a5780601f10610f0f57610100808354040283529160200191610f3a565b820191906000526020600020905b815481529060010190602001808311610f1d57829003601f168201915b5050505050815260200160038201548152505081526020019060010190610e6e565b505050509050919050565b600a546001600160a01b03163314610f915760405162461bcd60e51b815260040161060c9061375c565b600954811115610fb35760405162461bcd60e51b815260040161060c90613523565b60008111610fd35760405162461bcd60e51b815260040161060c90613551565b60006008610fe260018461379e565b81548110610ff257610ff261364a565b60009182526020909120600b90910201600a81015490915060ff161561105a5760405162461bcd60e51b815260206004820152601760248201527f526f756e6420697320616c726561647920616374697665000000000000000000604482015260640161060c565b4281600801541161109f5760405162461bcd60e51b815260206004820152600f60248201526e149bdd5b99081a185cc8195b991959608a1b604482015260640161060c565b600a01805460ff1916600117905550565b3360009081526020819052604081208054839081106110d1576110d161364a565b6000918252602090912060049091020160018101549091506001600160a01b031633146111405760405162461bcd60e51b815260206004820152601f60248201527f4f6e6c7920617574686f722063616e206170706c7920666f7220726f756e6400604482015260640161060c565b6009548311156111625760405162461bcd60e51b815260040161060c90613523565b600083116111825760405162461bcd60e51b815260040161060c90613551565b6000600861119160018661379e565b815481106111a1576111a161364a565b60009182526020909120600b90910201600a81015490915060ff166111fe5760405162461bcd60e51b8152602060048201526013602482015272526f756e64206973206e6f742061637469766560681b604482015260640161060c565b428160080154116112435760405162461bcd60e51b815260206004820152600f60248201526e149bdd5b99081a185cc8195b991959608a1b604482015260640161060c565b3360009081526020819052604090205483106112715760405162461bcd60e51b815260040161060c90613588565b33600090815260046020908152604080832086845290915290208154815560018083015490820180546001600160a01b0319166001600160a01b039290921691909117905581906002808201906112ca90840182613800565b506003818101906112dd90840182613800565b5060048281015482820180546001600160a01b03199081166001600160a01b03938416179091556005808601549085018054831691841691909117905560068086015490850155600780860154908501556008808601549085015560098086015490850155600a9485015494909301805460ff909516151560ff19909516949094179093556000878152600360209081526040822080546001818101835591845291909220875491909302909201918255858101549082018054909316931692909217905582906002808201906113b690840182613800565b50600391820154910155604080518481526020810186905233917f811c03f2bbb9360eb64c761297098be1002730230dcb29e79fe32df622aa76f2910160405180910390a250505050565b600080600861141160018861379e565b815481106114215761142161364a565b90600052602060002090600b02019050600061143c87612959565b6001600160a01b038716600090815260066020908152604080832089845282528083208b8452909152812054919250600261147687612d1b565b6114809084613698565b61148a91906139c5565b905060006114998a8a8a6117b3565b90506000848387600601546114ae91906139d4565b6114b891906139eb565b90506114c4828261379e565b9b9a5050505050505050505050565b61150760405180608001604052806000815260200160006001600160a01b0316815260200160608152602001600081525090565b6001600160a01b03831660009081526020819052604090208054839081106115315761153161364a565b9060005260206000209060040201604051806080016040529081600082015481526020016001820160009054906101000a90046001600160a01b03166001600160a01b03166001600160a01b03168152602001600282018054611593906135fd565b80601f01602080910402602001604051908101604052809291908181526020018280546115bf906135fd565b801561160c5780601f106115e15761010080835404028352916020019161160c565b820191906000526020600020905b8154815290600101906020018083116115ef57829003601f168201915b5050505050815260200160038201548152505090505b92915050565b600460209081526000928352604080842090915290825290208054600182015460028301805492936001600160a01b0390921692611665906135fd565b80601f0160208091040260200160405190810160405280929190818152602001828054611691906135fd565b80156116de5780601f106116b3576101008083540402835291602001916116de565b820191906000526020600020905b8154815290600101906020018083116116c157829003601f168201915b5050505050908060030180546116f3906135fd565b80601f016020809104026020016040519081016040528092919081815260200182805461171f906135fd565b801561176c5780601f106117415761010080835404028352916020019161176c565b820191906000526020600020905b81548152906001019060200180831161174f57829003601f168201915b505050600484015460058501546006860154600787015460088801546009890154600a9099015497986001600160a01b039586169894909516965091945092909160ff168b565b60006009548411156117d75760405162461bcd60e51b815260040161060c90613523565b600084116117f75760405162461bcd60e51b815260040161060c90613551565b6001600160a01b038316600090815260208190526040902054821061182e5760405162461bcd60e51b815260040161060c90613588565b6001600160a01b038316600090815260046020908152604080832085845290915290205484146118705760405162461bcd60e51b815260040161060c906135b8565b600061187b85612959565b6001600160a01b03851660009081526006602090815260408083208784528252808320898452909152812054919250906118b7906002906139c5565b9050600060086118c860018961379e565b815481106118d8576118d861364a565b90600052602060002090600b020190506000838383600601546118fb91906139d4565b61190591906139eb565b98975050505050505050565b6002602052826000526040600020602052816000526040600020818154811061193957600080fd5b6000918252602090912001546001600160a01b0316925083915050565b600a546001600160a01b031633146119805760405162461bcd60e51b815260040161060c9061375c565b6001600160a01b0382166000908152600560209081526040808320848452825280832086845290915281205460ff1660028111156119c0576119c0612f13565b146119dd5760405162461bcd60e51b815260040161060c90613a0d565b6001600160a01b03821660009081526005602090815260408083208484528252808320868452909152902080546002919060ff19166001835b0217905550505050565b611a5460405180608001604052806000815260200160006001600160a01b0316815260200160608152602001600081525090565b600083815260036020526040902054611a7f5760405162461bcd60e51b815260040161060c90613a4e565b60008381526003602052604090208054839081106115315761153161364a565b60088181548110611aaf57600080fd5b60009182526020909120600b90910201805460018201546002830180549294506001600160a01b039091169291611665906135fd565b611aed612e3f565b600954821115611b0f5760405162461bcd60e51b815260040161060c90613523565b60008211611b2f5760405162461bcd60e51b815260040161060c90613551565b6008611b3c60018461379e565b81548110611b4c57611b4c61364a565b90600052602060002090600b020160405180610160016040529081600082015481526020016001820160009054906101000a90046001600160a01b03166001600160a01b03166001600160a01b03168152602001600282018054611baf906135fd565b80601f0160208091040260200160405190810160405280929190818152602001828054611bdb906135fd565b8015611c285780601f10611bfd57610100808354040283529160200191611c28565b820191906000526020600020905b815481529060010190602001808311611c0b57829003601f168201915b50505050508152602001600382018054611c41906135fd565b80601f0160208091040260200160405190810160405280929190818152602001828054611c6d906135fd565b8015611cba5780601f10611c8f57610100808354040283529160200191611cba565b820191906000526020600020905b815481529060010190602001808311611c9d57829003601f168201915b505050918352505060048201546001600160a01b03908116602083015260058301541660408201526006820154606082015260078201546080820152600882015460a0820152600982015460c0820152600a9091015460ff16151560e09091015292915050565b60036020528160005260406000208181548110610d7857600080fd5b6001600160a01b0382166000908152602081905260408120548210611d745760405162461bcd60e51b815260040161060c90613588565b600b546040516348e5949760e11b81526001600160a01b038681166004830152858116602483015260448201859052909116906391cb292e90606401602060405180830381865afa158015611dcd573d6000803e3d6000fd5b505050506040513d601f19601f82011682018060405250810190611df19190613660565b949350505050565b611e01612e3f565b600a546001600160a01b03163314611e2b5760405162461bcd60e51b815260040161060c9061375c565b818310611e855760405162461bcd60e51b815260206004820152602260248201527f53746172742064617465206d757374206265206265666f726520656e64206461604482015261746560f01b606482015260840161060c565b428211611ed45760405162461bcd60e51b815260206004820152601e60248201527f456e642064617465206d75737420626520696e20746865206675747572650000604482015260640161060c565b6000611ee287878686612d74565b9050600085604051602001611ef79190613a7c565b604051602081830303815290604052905060006040518061016001604052806009546001611f259190613698565b8152600a546001600160a01b0390811660208084019190915260408084018d90526060840187905287831660808501528d831660a0850152600060c0850181905260e085018c905261010085018b90524261012086015261014090940184905260088054600181018255945284517ff3f7a9fe364faab93b216da50a3214154f22a0a2b415b23a84c8169e8b636ee3600b909502948501908155918501517ff3f7a9fe364faab93b216da50a3214154f22a0a2b415b23a84c8169e8b636ee4850180546001600160a01b031916919094161790925590830151929350839290917ff3f7a9fe364faab93b216da50a3214154f22a0a2b415b23a84c8169e8b636ee501906120329082613a98565b50606082015160038201906120479082613a98565b5060808201516004820180546001600160a01b039283166001600160a01b03199182161790915560a084015160058401805491909316911617905560c0820151600682015560e08201516007820155610100820151600882015561012082015160098083019190915561014090920151600a909101805491151560ff199092169190911790555433907f54f1e700602fe6f1e920566675fa34d9f2ce7d06894c9369be2e0fecd1ca40359085906120ff906001613698565b8b8a8a604051612113959493929190613b52565b60405180910390a26009805490600061212b83613b8d565b90915550909998505050505050505050565b612145612e3f565b6001600160a01b038316600090815260208190526040902054821061217c5760405162461bcd60e51b815260040161060c90613588565b6001600160a01b0380841660009081526004602090815260408083208684528252918290208251610160810184528154815260018201549094169184019190915260028101805491928401916121d1906135fd565b80601f01602080910402602001604051908101604052809291908181526020018280546121fd906135fd565b801561224a5780601f1061221f5761010080835404028352916020019161224a565b820191906000526020600020905b81548152906001019060200180831161222d57829003601f168201915b50505050508152602001600382018054612263906135fd565b80601f016020809104026020016040519081016040528092919081815260200182805461228f906135fd565b80156122dc5780601f106122b1576101008083540402835291602001916122dc565b820191906000526020600020905b8154815290600101906020018083116122bf57829003601f168201915b505050918352505060048201546001600160a01b03908116602083015260058301541660408201526006820154606082015260078201546080820152600882015460a0820152600982015460c0820152600a9091015460ff16151560e0909101529392505050565b60006009548211156123685760405162461bcd60e51b815260040161060c90613523565b600082116123885760405162461bcd60e51b815260040161060c90613551565b6001600160a01b03841660009081526020819052604090205483106123bf5760405162461bcd60e51b815260040161060c90613588565b6001600160a01b038416600090815260046020908152604080832086845290915290205482146124015760405162461bcd60e51b815260040161060c906135b8565b506001600160a01b038316600090815260066020908152604080832085845282528083208484529091529020549392505050565b60006009548411156124595760405162461bcd60e51b815260040161060c90613523565b600084116124795760405162461bcd60e51b815260040161060c90613551565b6001600160a01b03831660009081526020819052604090205482106124b05760405162461bcd60e51b815260040161060c90613588565b6001600160a01b038316600090815260046020908152604080832085845290915290205484146124f25760405162461bcd60e51b815260040161060c906135b8565b5060009283526007602090815260408085206001600160a01b039490941685529281528284209184525290205490565b6001600160a01b03821660009081526020819052604081205482106125595760405162461bcd60e51b815260040161060c90613588565b6001600160a01b03831660009081526020819052604090208054839081106125835761258361364a565b906000526020600020906004020160030154905092915050565b600a546001600160a01b031633146125c75760405162461bcd60e51b815260040161060c9061375c565b6009548111156125e95760405162461bcd60e51b815260040161060c90613523565b600081116126095760405162461bcd60e51b815260040161060c90613551565b6000600861261860018461379e565b815481106126285761262861364a565b90600052602060002090600b02019050600061264383612959565b6000848152600360205260409020549091506126715760405162461bcd60e51b815260040161060c90613a4e565b60005b60008481526003602052604090205481101561282a5760008481526003602052604081208054839081106126aa576126aa61364a565b600091825260208083206001600490930201918201546001600160a01b031683526006815260408084208354855282528084208985529091528220549092506126f5906002906139c5565b905060008482876006015461270a91906139d4565b61271491906139eb565b60008881526007602090815260408083206001880180546001600160a01b039081168652918452828520895486529093529281902084905560048a810154925491516330cb4c5b60e21b81529184169082015260248101849052929350169063c32d316c906044016020604051808303816000875af115801561279b573d6000803e3d6000fd5b505050506040513d601f19601f820116820180604052508101906127bf9190613660565b5060018301548354604080516001600160a01b0390931683526020830191909152810182905287907f0ce65a112a335d2d5fc972d2f7d916ac65b9c552cca921234bb7846404f7cf179060600160405180910390a2505050808061282290613b8d565b915050612674565b50505050565b600061162282612d1b565b600060095483111561285f5760405162461bcd60e51b815260040161060c90613523565b6000831161287f5760405162461bcd60e51b815260040161060c90613551565b6000600861288e60018661379e565b8154811061289e5761289e61364a565b60009182526020909120600b9091020160058101546004808301546040516323b872dd60e01b815233928101929092526001600160a01b039081166024830152604482018790529293509116906323b872dd906064016020604051808303816000875af1158015612913573d6000803e3d6000fd5b505050506040513d601f19601f820116820180604052508101906129379190613660565b91508281600601600082825461294d9190613698565b90915550505092915050565b600080805b600084815260036020526040902054811015612a2b5760008481526003602052604090205461299f5760405162461bcd60e51b815260040161060c90613a4e565b60008481526003602052604081208054839081106129bf576129bf61364a565b600091825260208083206001600490930201918201546001600160a01b0316835260068152604080842083548552825280842089855290915290912054909150612a0a6002826139c5565b612a149085613698565b935050508080612a2390613b8d565b91505061295e565b5092915050565b600a546001600160a01b03163314612a5c5760405162461bcd60e51b815260040161060c9061375c565b600954811115612a7e5760405162461bcd60e51b815260040161060c90613523565b60008111612a9e5760405162461bcd60e51b815260040161060c90613551565b60006008612aad60018461379e565b81548110612abd57612abd61364a565b60009182526020909120600b90910201600a81015490915060ff16612b1a5760405162461bcd60e51b8152602060048201526013602482015272526f756e64206973206e6f742061637469766560681b604482015260640161060c565b600a01805460ff1916905550565b600a546001600160a01b03163314612b525760405162461bcd60e51b815260040161060c9061375c565b6001600160a01b0382166000908152600560209081526040808320848452825280832086845290915281205460ff166002811115612b9257612b92612f13565b14612baf5760405162461bcd60e51b815260040161060c90613a0d565b6001600160a01b03821660009081526005602090815260408083208484528252808320868452909152902080546001919060ff19168280611a16565b600080825111612c3d5760405162461bcd60e51b815260206004820152601760248201527f436f6e74656e742063616e6e6f7420626520656d707479000000000000000000604482015260640161060c565b3360008181526020818152604080832080548251608081018452818152808501968752928301888152606084018690528585526001808301845592865293909420825160048602909101908155945190850180546001600160a01b0319166001600160a01b039092169190911790559051919290918291906002820190612cc49082613a98565b50606082015181600301555050336001600160a01b03167f8287f7cb9ee4a80a03db149d7cce31b9dc4803c6746c41e6131a5da3fbe392fa8584604051612d0c929190613ba6565b60405180910390a25092915050565b6000806002612d2b846001613698565b612d3591906139eb565b90508291505b81811015612d6e57905080600281612d5381866139eb565b612d5d9190613698565b612d6791906139eb565b9050612d3b565b50919050565b60008060405180602001612d8790612eb6565b6020820181038252601f19601f8201166040525090506000858585604051602001612db493929190613bc8565b604051602081830303815290604052805190602001209050808251602084016000f560405163189acdbd60e31b81526001600160a01b0389811660048301529194509084169063c4d66de890602401600060405180830381600087803b158015612e1d57600080fd5b505af1158015612e31573d6000803e3d6000fd5b505050505050949350505050565b6040518061016001604052806000815260200160006001600160a01b03168152602001606081526020016060815260200160006001600160a01b0316815260200160006001600160a01b03168152602001600081526020016000815260200160008152602001600081526020016000151581525090565b61045980613bf083390190565b6001600160a01b0381168114612ed857600080fd5b50565b600080600060608486031215612ef057600080fd5b833592506020840135612f0281612ec3565b929592945050506040919091013590565b634e487b7160e01b600052602160045260246000fd5b6020810160038310612f4b57634e487b7160e01b600052602160045260246000fd5b91905290565b60005b83811015612f6c578181015183820152602001612f54565b50506000910152565b60008151808452612f8d816020860160208601612f51565b601f01601f19169290920160200192915050565b6000610160825184526020830151612fc460208601826001600160a01b03169052565b506040830151816040860152612fdc82860182612f75565b91505060608301518482036060860152612ff68282612f75565b915050608083015161301360808601826001600160a01b03169052565b5060a083015161302e60a08601826001600160a01b03169052565b5060c0838101519085015260e080840151908501526101008084015190850152610120808401519085015261014092830151151592909301919091525090565b6000602080830181845280855180835260408601915060408160051b870101925083870160005b828110156130c357603f198886030184526130b1858351612fa1565b94509285019290850190600101613095565b5092979650505050505050565b600080600080608085870312156130e657600080fd5b84356130f181612ec3565b935060208501359250604085013561310881612ec3565b9396929550929360600135925050565b6000806040838503121561312b57600080fd5b823561313681612ec3565b946020939093013593505050565b8481526001600160a01b038416602082015260806040820181905260009061316e90830185612f75565b905082606083015295945050505050565b60006020828403121561319157600080fd5b813561319c81612ec3565b9392505050565b8051825260018060a01b03602082015116602083015260006040820151608060408501526131d46080850182612f75565b606093840151949093019390935250919050565b6000602080830181845280855180835260408601915060408160051b870101925083870160005b828110156130c357603f1988860301845261322b8583516131a3565b9450928501929085019060010161320f565b60006020828403121561324f57600080fd5b5035919050565b6000806040838503121561326957600080fd5b50508035926020909101359150565b6000806000806080858703121561328e57600080fd5b8435935060208501356132a081612ec3565b93969395505050506040820135916060013590565b60208152600061319c60208301846131a3565b8b81526001600160a01b038b81166020830152610160604083018190526000916132f48483018e612f75565b91508382036060850152613308828d612f75565b9a811660808501529890981660a08301525060c081019590955260e085019390935261010084019190915261012083015215156101409091015250949350505050565b60008060006060848603121561336057600080fd5b833561336b81612ec3565b95602085013595506040909401359392505050565b60208152600061319c6020830184612fa1565b6000806000606084860312156133a857600080fd5b83356133b381612ec3565b92506020840135612f0281612ec3565b634e487b7160e01b600052604160045260246000fd5b600082601f8301126133ea57600080fd5b813567ffffffffffffffff80821115613405576134056133c3565b604051601f8301601f19908116603f0116810190828211818310171561342d5761342d6133c3565b8160405283815286602085880101111561344657600080fd5b836020870160208301376000602085830101528094505050505092915050565b600080600080600060a0868803121561347e57600080fd5b853561348981612ec3565b9450602086013567ffffffffffffffff808211156134a657600080fd5b6134b289838a016133d9565b955060408801359150808211156134c857600080fd5b506134d5888289016133d9565b9598949750949560608101359550608001359392505050565b60006020828403121561350057600080fd5b813567ffffffffffffffff81111561351757600080fd5b611df1848285016133d9565b602080825260149082015273149bdd5b9908191bd95cc81b9bdd08195e1a5cdd60621b604082015260600190565b60208082526018908201527f526f756e644964203020646f6573206e6f742065786973740000000000000000604082015260600190565b602080825260169082015275105c9d1a58db1948191bd95cc81b9bdd08195e1a5cdd60521b604082015260600190565b60208082526025908201527f417574686f7220686173206e6f74206170706c69656420666f722074686973206040820152641c9bdd5b9960da1b606082015260800190565b600181811c9082168061361157607f821691505b602082108103612d6e57634e487b7160e01b600052602260045260246000fd5b60006020828403121561364357600080fd5b5051919050565b634e487b7160e01b600052603260045260246000fd5b60006020828403121561367257600080fd5b8151801515811461319c57600080fd5b634e487b7160e01b600052601160045260246000fd5b8082018082111561162257611622613682565b6001600160a01b03858116825284166020808301919091526040820184905260806060830152825460009182916136e1816135fd565b80608087015260a0600180841660008114613703576001811461371d5761374b565b60ff1985168984015283151560051b89018301965061374b565b896000528560002060005b858110156137435781548b8201860152908301908701613728565b8a0184019750505b50949b9a5050505050505050505050565b60208082526022908201527f4f6e6c79206f776e65722063616e2063616c6c20746869732066756e6374696f604082015261371760f11b606082015260800190565b8181038181111561162257611622613682565b601f8211156137fb57600081815260208120601f850160051c810160208610156137d85750805b601f850160051c820191505b818110156137f7578281556001016137e4565b5050505b505050565b81810361380b575050565b61381582546135fd565b67ffffffffffffffff81111561382d5761382d6133c3565b6138418161383b84546135fd565b846137b1565b6000601f821160018114613875576000831561385d5750848201545b600019600385901b1c1916600184901b1784556138da565b600085815260209020601f19841690600086815260209020845b838110156138af578286015482556001958601959091019060200161388f565b50858310156138cd5781850154600019600388901b60f8161c191681555b50505060018360011b0184555b5050505050565b600181815b8085111561391c57816000190482111561390257613902613682565b8085161561390f57918102915b93841c93908002906138e6565b509250929050565b60008261393357506001611622565b8161394057506000611622565b816001811461395657600281146139605761397c565b6001915050611622565b60ff84111561397157613971613682565b50506001821b611622565b5060208310610133831016604e8410600b841016171561399f575081810a611622565b6139a983836138e1565b80600019048211156139bd576139bd613682565b029392505050565b600061319c60ff841683613924565b808202811582820484141761162257611622613682565b600082613a0857634e487b7160e01b600052601260045260246000fd5b500490565b60208082526021908201527f4170706c69636174696f6e20737461747573206973206e6f742050656e64696e6040820152606760f81b606082015260800190565b602080825260149082015273139bc8185c9d1a58db195cc81a5b881c9bdd5b9960621b604082015260600190565b60008251613a8e818460208701612f51565b9190910192915050565b815167ffffffffffffffff811115613ab257613ab26133c3565b613ac08161383b84546135fd565b602080601f831160018114613af55760008415613add5750858301515b600019600386901b1c1916600185901b1785556137f7565b600085815260208120601f198616915b82811015613b2457888601518255948401946001909101908401613b05565b5085821015613b425787850151600019600388901b60f8161c191681555b5050505050600190811b01905550565b60018060a01b038616815284602082015260a060408201526000613b7960a0830186612f75565b606083019490945250608001529392505050565b600060018201613b9f57613b9f613682565b5060010190565b604081526000613bb96040830185612f75565b90508260208301529392505050565b60008451613bda818460208901612f51565b9190910192835250602082015260400191905056fe608060405234801561001057600080fd5b50600180546001600160a01b03191633179055610427806100326000396000f3fe608060405234801561001057600080fd5b506004361061004c5760003560e01c80638da5cb5b14610051578063c32d316c14610081578063c4d66de8146100a4578063fc0c546a146100b9575b600080fd5b600154610064906001600160a01b031681565b6040516001600160a01b0390911681526020015b60405180910390f35b61009461008f36600461032b565b6100cc565b6040519015158152602001610078565b6100b76100b2366004610357565b6102c7565b005b600054610064906001600160a01b031681565b6001546000906001600160a01b031633146101025760405162461bcd60e51b81526004016100f990610374565b60405180910390fd5b6000546040516370a0823160e01b815230600482015283916001600160a01b0316906370a0823190602401602060405180830381865afa15801561014a573d6000803e3d6000fd5b505050506040513d601f19601f8201168201806040525081019061016e91906103b6565b10156101b15760405162461bcd60e51b81526020600482015260126024820152714e6f7420656e6f7567682062616c616e636560701b60448201526064016100f9565b6001600160a01b0383166101f95760405162461bcd60e51b815260206004820152600f60248201526e496e76616c6964206164647265737360881b60448201526064016100f9565b6000805460405163a9059cbb60e01b81526001600160a01b038681166004830152602482018690529091169063a9059cbb906044016020604051808303816000875af115801561024d573d6000803e3d6000fd5b505050506040513d601f19601f8201168201806040525081019061027191906103cf565b9050806102c05760405162461bcd60e51b815260206004820152601860248201527f4661696c656420746f207472616e7366657220746f6b656e000000000000000060448201526064016100f9565b9392505050565b6001546001600160a01b031633146102f15760405162461bcd60e51b81526004016100f990610374565b600080546001600160a01b0319166001600160a01b0392909216919091179055565b6001600160a01b038116811461032857600080fd5b50565b6000806040838503121561033e57600080fd5b823561034981610313565b946020939093013593505050565b60006020828403121561036957600080fd5b81356102c081610313565b60208082526022908201527f4f6e6c79206f776e65722063616e2063616c6c20746869732066756e6374696f604082015261371760f11b606082015260800190565b6000602082840312156103c857600080fd5b5051919050565b6000602082840312156103e157600080fd5b815180151581146102c057600080fdfea26469706673582212207212b70bff4a941e88ad4981fc3ad512b608483260809aced6ed4134ea2a729c64736f6c63430008130033a26469706673582212204fe22030ac58c6d40eefa19120879d9fc8443e7500ee6687d9add45742e574c564736f6c6343000813003360806040523480156200001157600080fd5b506040516200312c3803806200312c833981016040819052620000349162000169565b6040518060400160405280601781526020017f506c65646765506f737420446f6e6174696f6e204e4654000000000000000000815250604051806040016040528060078152602001661413141113919560ca1b81525081600090816200009b9190620002ee565b506001620000aa8282620002ee565b505050620000c7620000c1620000fd60201b60201c565b62000101565b600e620000d58282620002ee565b5050600c80546001600160a01b0319166001600160a01b0392909216919091179055620003ba565b3390565b600a80546001600160a01b038381166001600160a01b0319831681179093556040519116919082907f8be0079c531659141344cd1fd0a4f28419497f9722a3daafe3b4186f6b6457e090600090a35050565b634e487b7160e01b600052604160045260246000fd5b600080604083850312156200017d57600080fd5b82516001600160a01b03811681146200019557600080fd5b602084810151919350906001600160401b0380821115620001b557600080fd5b818601915086601f830112620001ca57600080fd5b815181811115620001df57620001df62000153565b604051601f8201601f19908116603f011681019083821181831017156200020a576200020a62000153565b8160405282815289868487010111156200022357600080fd5b600093505b8284101562000247578484018601518185018701529285019262000228565b60008684830101528096505050505050509250929050565b600181811c908216806200027457607f821691505b6020821081036200029557634e487b7160e01b600052602260045260246000fd5b50919050565b601f821115620002e957600081815260208120601f850160051c81016020861015620002c45750805b601f850160051c820191505b81811015620002e557828155600101620002d0565b5050505b505050565b81516001600160401b038111156200030a576200030a62000153565b62000322816200031b84546200025f565b846200029b565b602080601f8311600181146200035a5760008415620003415750858301515b600019600386901b1c1916600185901b178555620002e5565b600085815260208120601f198616915b828110156200038b578886015182559484019460019091019084016200036a565b5085821015620003aa5787850151600019600388901b60f8161c191681555b5050505050600190811b01905550565b612d6280620003ca6000396000f3fe608060405234801561001057600080fd5b50600436106101735760003560e01c8063715018a6116100de578063b80f55c911610097578063b8bdd24511610071578063b8bdd2451461031f578063c87b56dd14610332578063e985e9c514610345578063f2fde38b1461038157600080fd5b8063b80f55c9146102e6578063b85cbc79146102f9578063b88d4fde1461030c57600080fd5b8063715018a61461028c5780638da5cb5b1461029457806391cb292e146102a557806395d89b41146102b8578063a22cb465146102c0578063a660864d146102d357600080fd5b806323b872dd1161013057806323b872dd1461021a5780632f745c591461022d57806342842e0e146102405780634f6ccce7146102535780636352211e1461026657806370a082311461027957600080fd5b806301ffc9a71461017857806306fdde03146101a0578063081812fc146101b5578063095ea7b3146101e057806318160ddd146101f55780631ab4d7de14610207575b600080fd5b61018b61018636600461219f565b610394565b60405190151581526020015b60405180910390f35b6101a86103bf565b604051610197919061220c565b6101c86101c336600461221f565b610451565b6040516001600160a01b039091168152602001610197565b6101f36101ee366004612254565b610478565b005b6008545b604051908152602001610197565b6101a861021536600461221f565b610592565b6101f361022836600461227e565b6107cf565b6101f961023b366004612254565b610800565b6101f361024e36600461227e565b610896565b6101f961026136600461221f565b6108b1565b6101c861027436600461221f565b610944565b6101f96102873660046122ba565b6109a4565b6101f3610a2a565b600a546001600160a01b03166101c8565b61018b6102b336600461227e565b610a3e565b6101a8610c40565b6101f36102ce3660046122d5565b610c4f565b6101f36102e13660046123d0565b610c5e565b6101f36102f4366004612405565b610c72565b6101f96103073660046124ab565b610d02565b6101f361031a366004612513565b610efd565b6101f361032d366004612583565b610f35565b6101a861034036600461221f565b610fd6565b61018b6103533660046125ca565b6001600160a01b03918216600090815260056020908152604080832093909416825291909152205460ff1690565b6101f361038f3660046122ba565b6112b8565b60006001600160e01b031982166380ac58cd60e01b14806103b957506103b982611331565b92915050565b6060600080546103ce906125fd565b80601f01602080910402602001604051908101604052809291908181526020018280546103fa906125fd565b80156104475780601f1061041c57610100808354040283529160200191610447565b820191906000526020600020905b81548152906001019060200180831161042a57829003601f168201915b5050505050905090565b600061045c82611356565b506000908152600460205260409020546001600160a01b031690565b600061048382610944565b9050806001600160a01b0316836001600160a01b0316036104f55760405162461bcd60e51b815260206004820152602160248201527f4552433732313a20617070726f76616c20746f2063757272656e74206f776e656044820152603960f91b60648201526084015b60405180910390fd5b336001600160a01b038216148061051157506105118133610353565b6105835760405162461bcd60e51b815260206004820152603d60248201527f4552433732313a20617070726f76652063616c6c6572206973206e6f7420746f60448201527f6b656e206f776e6572206f7220617070726f76656420666f7220616c6c00000060648201526084016104ec565b61058d83836113a6565b505050565b606061059d82611414565b6105b95760405162461bcd60e51b81526004016104ec90612637565b6000828152600d60209081526040808320815160a08101835281546001600160a01b0390811682526001830154169381019390935260028101549183019190915260038101805460608401919061060f906125fd565b80601f016020809104026020016040519081016040528092919081815260200182805461063b906125fd565b80156106885780601f1061065d57610100808354040283529160200191610688565b820191906000526020600020905b81548152906001019060200180831161066b57829003601f168201915b505050505081526020016004820180546106a1906125fd565b80601f01602080910402602001604051908101604052809291908181526020018280546106cd906125fd565b801561071a5780601f106106ef5761010080835404028352916020019161071a565b820191906000526020600020905b8154815290600101906020018083116106fd57829003601f168201915b50505050508152505090506000816080015151116107c257600e805461073f906125fd565b80601f016020809104026020016040519081016040528092919081815260200182805461076b906125fd565b80156107b85780601f1061078d576101008083540402835291602001916107b8565b820191906000526020600020905b81548152906001019060200180831161079b57829003601f168201915b50505050506107c8565b80608001515b9392505050565b6107d93382611431565b6107f55760405162461bcd60e51b81526004016104ec9061266e565b61058d8383836114af565b600061080b836109a4565b821061086d5760405162461bcd60e51b815260206004820152602b60248201527f455243373231456e756d657261626c653a206f776e657220696e646578206f7560448201526a74206f6620626f756e647360a81b60648201526084016104ec565b506001600160a01b03919091166000908152600660209081526040808320938352929052205490565b61058d83838360405180602001604052806000815250610efd565b60006108bc60085490565b821061091f5760405162461bcd60e51b815260206004820152602c60248201527f455243373231456e756d657261626c653a20676c6f62616c20696e646578206f60448201526b7574206f6620626f756e647360a01b60648201526084016104ec565b60088281548110610932576109326126bb565b90600052602060002001549050919050565b6000818152600260205260408120546001600160a01b0316806103b95760405162461bcd60e51b8152602060048201526018602482015277115490cdcc8c4e881a5b9d985b1a59081d1bdad95b88125160421b60448201526064016104ec565b60006001600160a01b038216610a0e5760405162461bcd60e51b815260206004820152602960248201527f4552433732313a2061646472657373207a65726f206973206e6f7420612076616044820152683634b21037bbb732b960b91b60648201526084016104ec565b506001600160a01b031660009081526003602052604090205490565b610a32611620565b610a3c600061167a565b565b600080610a4a60085490565b905060005b81811015610c34576000818152600d60209081526040808320815160a08101835281546001600160a01b03908116825260018301541693810193909352600281015491830191909152600381018054606084019190610aad906125fd565b80601f0160208091040260200160405190810160405280929190818152602001828054610ad9906125fd565b8015610b265780601f10610afb57610100808354040283529160200191610b26565b820191906000526020600020905b815481529060010190602001808311610b0957829003601f168201915b50505050508152602001600482018054610b3f906125fd565b80601f0160208091040260200160405190810160405280929190818152602001828054610b6b906125fd565b8015610bb85780601f10610b8d57610100808354040283529160200191610bb8565b820191906000526020600020905b815481529060010190602001808311610b9b57829003601f168201915b5050505050815250509050856001600160a01b031681602001516001600160a01b0316148015610beb5750848160400151145b8015610c105750866001600160a01b0316610c0583610944565b6001600160a01b0316145b15610c2157600193505050506107c8565b5080610c2c816126e7565b915050610a4f565b50600095945050505050565b6060600180546103ce906125fd565b610c5a3383836116cc565b5050565b610c66611620565b600e610c5a828261274e565b60005b8151811015610c5a57610ca0828281518110610c9357610c936126bb565b602002602001015161179a565b818181518110610cb257610cb26126bb565b6020026020010151336001600160a01b03167f696de425f79f4a40bc6d2122ca50507f0efbeabbff86a84871b7196ab8ea8df760405160405180910390a380610cfa816126e7565b915050610c75565b6000610d0c611620565b6001600160a01b038516610d5b5760405162461bcd60e51b81526020600482015260166024820152754d696e7465722061646472657373206973207a65726f60501b60448201526064016104ec565b6001600160a01b038416610daa5760405162461bcd60e51b8152602060048201526016602482015275417574686f722061646472657373206973207a65726f60501b60448201526064016104ec565b6000825111610df25760405162461bcd60e51b81526020600482015260146024820152734465736372697074696f6e20697320656d70747960601b60448201526064016104ec565b6000610dfd600b5490565b9050610e0d600b80546001019055565b610e17868261183d565b6000818152600d6020526040902080546001600160a01b0319166001600160a01b03881617815560038101610e4c858261274e565b506001810180546001600160a01b0319166001600160a01b03881617905560028101859055600481018054610e80906125fd565b9050600003610e9a5760048101610e98600e8261280e565b505b84866001600160a01b0316886001600160a01b03167f5abfec23ced2338c97ba48e11a6a9e3c3d4af136e1ba56eab6b06567453977208542604051610ee9929190918252602082015260400190565b60405180910390a45090505b949350505050565b610f073383611431565b610f235760405162461bcd60e51b81526004016104ec9061266e565b610f2f84848484611857565b50505050565b610f3d611620565b610f4682611414565b610f625760405162461bcd60e51b81526004016104ec90612637565b6000610f6d83610944565b6001600160a01b031603610fba5760405162461bcd60e51b8152602060048201526014602482015273151bdad95b88191bd95cc81b9bdd08195e1a5cdd60621b60448201526064016104ec565b6000828152600d6020526040902060048101610f2f838261274e565b6060610fe182611414565b610ffd5760405162461bcd60e51b81526004016104ec90612637565b6000828152600d60209081526040808320815160a08101835281546001600160a01b03908116825260018301541693810193909352600281015491830191909152600381018054606084019190611053906125fd565b80601f016020809104026020016040519081016040528092919081815260200182805461107f906125fd565b80156110cc5780601f106110a1576101008083540402835291602001916110cc565b820191906000526020600020905b8154815290600101906020018083116110af57829003601f168201915b505050505081526020016004820180546110e5906125fd565b80601f0160208091040260200160405190810160405280929190818152602001828054611111906125fd565b801561115e5780601f106111335761010080835404028352916020019161115e565b820191906000526020600020905b81548152906001019060200180831161114157829003601f168201915b505050505081525050905060006111748461188a565b8260200151611186846040015161188a565b604051602001611198939291906128fd565b60405160208183030381529060405290506000808360800151511161124757600e80546111c4906125fd565b80601f01602080910402602001604051908101604052809291908181526020018280546111f0906125fd565b801561123d5780601f106112125761010080835404028352916020019161123d565b820191906000526020600020905b81548152906001019060200180831161122057829003601f168201915b505050505061124d565b82608001515b9050600061125a8661188a565b846060015183856040516020016112749493929190612a56565b604051602081830303815290604052905061128e8161191d565b60405160200161129e9190612b4b565b604051602081830303815290604052945050505050919050565b6112c0611620565b6001600160a01b0381166113255760405162461bcd60e51b815260206004820152602660248201527f4f776e61626c653a206e6577206f776e657220697320746865207a65726f206160448201526564647265737360d01b60648201526084016104ec565b61132e8161167a565b50565b60006001600160e01b0319821663780e9d6360e01b14806103b957506103b982611a70565b61135f81611414565b61132e5760405162461bcd60e51b8152602060048201526018602482015277115490cdcc8c4e881a5b9d985b1a59081d1bdad95b88125160421b60448201526064016104ec565b600081815260046020526040902080546001600160a01b0319166001600160a01b03841690811790915581906113db82610944565b6001600160a01b03167f8c5be1e5ebec7d5bd14f71427d1e84f3dd0314c0f7b2291e5b200ac8c7c3b92560405160405180910390a45050565b6000908152600260205260409020546001600160a01b0316151590565b60008061143d83610944565b9050806001600160a01b0316846001600160a01b0316148061148457506001600160a01b0380821660009081526005602090815260408083209388168352929052205460ff165b80610ef55750836001600160a01b031661149d84610451565b6001600160a01b031614949350505050565b826001600160a01b03166114c282610944565b6001600160a01b0316146114e85760405162461bcd60e51b81526004016104ec90612b90565b6001600160a01b03821661154a5760405162461bcd60e51b8152602060048201526024808201527f4552433732313a207472616e7366657220746f20746865207a65726f206164646044820152637265737360e01b60648201526084016104ec565b6115578383836001611ac0565b826001600160a01b031661156a82610944565b6001600160a01b0316146115905760405162461bcd60e51b81526004016104ec90612b90565b600081815260046020908152604080832080546001600160a01b03199081169091556001600160a01b0387811680865260038552838620805460001901905590871680865283862080546001019055868652600290945282852080549092168417909155905184937fddf252ad1be2c89b69c2b068fc378daa952ba7f163c4a11628f55a4df523b3ef91a4505050565b600a546001600160a01b03163314610a3c5760405162461bcd60e51b815260206004820181905260248201527f4f776e61626c653a2063616c6c6572206973206e6f7420746865206f776e657260448201526064016104ec565b600a80546001600160a01b038381166001600160a01b0319831681179093556040519116919082907f8be0079c531659141344cd1fd0a4f28419497f9722a3daafe3b4186f6b6457e090600090a35050565b816001600160a01b0316836001600160a01b03160361172d5760405162461bcd60e51b815260206004820152601960248201527f4552433732313a20617070726f766520746f2063616c6c65720000000000000060448201526064016104ec565b6001600160a01b03838116600081815260056020908152604080832094871680845294825291829020805460ff191686151590811790915591519182527f17307eab39ab6107e8899845ad3d59bd9653f200f220920489ca2b5937696c31910160405180910390a3505050565b60006117a582610944565b90506117b5816000846001611ac0565b6117be82610944565b600083815260046020908152604080832080546001600160a01b03199081169091556001600160a01b0385168085526003845282852080546000190190558785526002909352818420805490911690555192935084927fddf252ad1be2c89b69c2b068fc378daa952ba7f163c4a11628f55a4df523b3ef908390a45050565b610c5a828260405180602001604052806000815250611b41565b6118628484846114af565b61186e84848484611b74565b610f2f5760405162461bcd60e51b81526004016104ec90612bd5565b6060600061189783611c72565b600101905060008167ffffffffffffffff8111156118b7576118b7612311565b6040519080825280601f01601f1916602001820160405280156118e1576020820181803683370190505b5090508181016020015b600019016f181899199a1a9b1b9c1cb0b131b232b360811b600a86061a8153600a85049450846118eb57509392505050565b6060815160000361193c57505060408051602081019091526000815290565b6000604051806060016040528060408152602001612ced604091399050600060038451600261196b9190612c27565b6119759190612c3a565b611980906004612c5c565b67ffffffffffffffff81111561199857611998612311565b6040519080825280601f01601f1916602001820160405280156119c2576020820181803683370190505b509050600182016020820185865187015b80821015611a2e576003820191508151603f8160121c168501518453600184019350603f81600c1c168501518453600184019350603f8160061c168501518453600184019350603f81168501518453506001830192506119d3565b5050600386510660018114611a4a5760028114611a5d57611a65565b603d6001830353603d6002830353611a65565b603d60018303535b509195945050505050565b60006001600160e01b031982166380ac58cd60e01b1480611aa157506001600160e01b03198216635b5e139f60e01b145b806103b957506301ffc9a760e01b6001600160e01b03198316146103b9565b6001600160a01b0384161580611add57506001600160a01b038316155b611b355760405162461bcd60e51b815260206004820152602360248201527f4572723a205468697320746f6b656e206973206e6f74207472616e7366657261604482015262626c6560e81b60648201526084016104ec565b610f2f84848484611d4a565b611b4b8383611e7e565b611b586000848484611b74565b61058d5760405162461bcd60e51b81526004016104ec90612bd5565b60006001600160a01b0384163b15611c6a57604051630a85bd0160e11b81526001600160a01b0385169063150b7a0290611bb8903390899088908890600401612c73565b6020604051808303816000875af1925050508015611bf3575060408051601f3d908101601f19168201909252611bf091810190612ca6565b60015b611c50573d808015611c21576040519150601f19603f3d011682016040523d82523d6000602084013e611c26565b606091505b508051600003611c485760405162461bcd60e51b81526004016104ec90612bd5565b805181602001fd5b6001600160e01b031916630a85bd0160e11b149050610ef5565b506001610ef5565b60008072184f03e93ff9f4daa797ed6e38ed64bf6a1f0160401b8310611cb15772184f03e93ff9f4daa797ed6e38ed64bf6a1f0160401b830492506040015b6d04ee2d6d415b85acef81000000008310611cdd576d04ee2d6d415b85acef8100000000830492506020015b662386f26fc100008310611cfb57662386f26fc10000830492506010015b6305f5e1008310611d13576305f5e100830492506008015b6127108310611d2757612710830492506004015b60648310611d39576064830492506002015b600a83106103b95760010192915050565b6001811115611db95760405162461bcd60e51b815260206004820152603560248201527f455243373231456e756d657261626c653a20636f6e7365637574697665207472604482015274185b9cd9995c9cc81b9bdd081cdd5c1c1bdc9d1959605a1b60648201526084016104ec565b816001600160a01b038516611e1557611e1081600880546000838152600960205260408120829055600182018355919091527ff3f7a9fe364faab93b216da50a3214154f22a0a2b415b23a84c8169e8b636ee30155565b611e38565b836001600160a01b0316856001600160a01b031614611e3857611e388582611ff9565b6001600160a01b038416611e5457611e4f81612096565b611e77565b846001600160a01b0316846001600160a01b031614611e7757611e778482612145565b5050505050565b6001600160a01b038216611ed45760405162461bcd60e51b815260206004820181905260248201527f4552433732313a206d696e7420746f20746865207a65726f206164647265737360448201526064016104ec565b611edd81611414565b15611f2a5760405162461bcd60e51b815260206004820152601c60248201527f4552433732313a20746f6b656e20616c7265616479206d696e7465640000000060448201526064016104ec565b611f38600083836001611ac0565b611f4181611414565b15611f8e5760405162461bcd60e51b815260206004820152601c60248201527f4552433732313a20746f6b656e20616c7265616479206d696e7465640000000060448201526064016104ec565b6001600160a01b038216600081815260036020908152604080832080546001019055848352600290915280822080546001600160a01b0319168417905551839291907fddf252ad1be2c89b69c2b068fc378daa952ba7f163c4a11628f55a4df523b3ef908290a45050565b60006001612006846109a4565b6120109190612cc3565b600083815260076020526040902054909150808214612063576001600160a01b03841660009081526006602090815260408083208584528252808320548484528184208190558352600790915290208190555b5060009182526007602090815260408084208490556001600160a01b039094168352600681528383209183525290812055565b6008546000906120a890600190612cc3565b600083815260096020526040812054600880549394509092849081106120d0576120d06126bb565b9060005260206000200154905080600883815481106120f1576120f16126bb565b600091825260208083209091019290925582815260099091526040808220849055858252812055600880548061212957612129612cd6565b6001900381819060005260206000200160009055905550505050565b6000612150836109a4565b6001600160a01b039093166000908152600660209081526040808320868452825280832085905593825260079052919091209190915550565b6001600160e01b03198116811461132e57600080fd5b6000602082840312156121b157600080fd5b81356107c881612189565b60005b838110156121d75781810151838201526020016121bf565b50506000910152565b600081518084526121f88160208601602086016121bc565b601f01601f19169290920160200192915050565b6020815260006107c860208301846121e0565b60006020828403121561223157600080fd5b5035919050565b80356001600160a01b038116811461224f57600080fd5b919050565b6000806040838503121561226757600080fd5b61227083612238565b946020939093013593505050565b60008060006060848603121561229357600080fd5b61229c84612238565b92506122aa60208501612238565b9150604084013590509250925092565b6000602082840312156122cc57600080fd5b6107c882612238565b600080604083850312156122e857600080fd5b6122f183612238565b91506020830135801515811461230657600080fd5b809150509250929050565b634e487b7160e01b600052604160045260246000fd5b604051601f8201601f1916810167ffffffffffffffff8111828210171561235057612350612311565b604052919050565b600067ffffffffffffffff83111561237257612372612311565b612385601f8401601f1916602001612327565b905082815283838301111561239957600080fd5b828260208301376000602084830101529392505050565b600082601f8301126123c157600080fd5b6107c883833560208501612358565b6000602082840312156123e257600080fd5b813567ffffffffffffffff8111156123f957600080fd5b610ef5848285016123b0565b6000602080838503121561241857600080fd5b823567ffffffffffffffff8082111561243057600080fd5b818501915085601f83011261244457600080fd5b81358181111561245657612456612311565b8060051b9150612467848301612327565b818152918301840191848101908884111561248157600080fd5b938501935b8385101561249f57843582529385019390850190612486565b98975050505050505050565b600080600080608085870312156124c157600080fd5b6124ca85612238565b93506124d860208601612238565b925060408501359150606085013567ffffffffffffffff8111156124fb57600080fd5b612507878288016123b0565b91505092959194509250565b6000806000806080858703121561252957600080fd5b61253285612238565b935061254060208601612238565b925060408501359150606085013567ffffffffffffffff81111561256357600080fd5b8501601f8101871361257457600080fd5b61250787823560208401612358565b6000806040838503121561259657600080fd5b82359150602083013567ffffffffffffffff8111156125b457600080fd5b6125c0858286016123b0565b9150509250929050565b600080604083850312156125dd57600080fd5b6125e683612238565b91506125f460208401612238565b90509250929050565b600181811c9082168061261157607f821691505b60208210810361263157634e487b7160e01b600052602260045260246000fd5b50919050565b6020808252601f908201527f55524920717565727920666f72206e6f6e6578697374656e7420746f6b656e00604082015260600190565b6020808252602d908201527f4552433732313a2063616c6c6572206973206e6f7420746f6b656e206f776e6560408201526c1c881bdc88185c1c1c9bdd9959609a1b606082015260800190565b634e487b7160e01b600052603260045260246000fd5b634e487b7160e01b600052601160045260246000fd5b6000600182016126f9576126f96126d1565b5060010190565b601f82111561058d57600081815260208120601f850160051c810160208610156127275750805b601f850160051c820191505b8181101561274657828155600101612733565b505050505050565b815167ffffffffffffffff81111561276857612768612311565b61277c8161277684546125fd565b84612700565b602080601f8311600181146127b157600084156127995750858301515b600019600386901b1c1916600185901b178555612746565b600085815260208120601f198616915b828110156127e0578886015182559484019460019091019084016127c1565b50858210156127fe5787850151600019600388901b60f8161c191681555b5050505050600190811b01905550565b818103612819575050565b61282382546125fd565b67ffffffffffffffff81111561283b5761283b612311565b6128498161277684546125fd565b6000601f82116001811461287d57600083156128655750848201545b600019600385901b1c1916600184901b178455611e77565b600085815260209020601f19841690600086815260209020845b838110156128b75782860154825560019586019590910190602001612897565b50858310156127fe5793015460001960f8600387901b161c19169092555050600190811b01905550565b600081516128f38185602086016121bc565b9290920192915050565b7f7b2274726169745f74797065223a20224944222c202276616c7565223a20220081526000845161293581601f8501602089016121bc565b62089f4b60ea1b601f918401918201527f7b2274726169745f74797065223a20226e616d65222c202276616c7565223a206022820152601160f91b60428201527f506c65646765506f737420446f6e6174696f6e204e4654000000000000000000604382015261227d60f01b605a8201527f7b2274726169745f74797065223a2022617574686f72222c202276616c756522605c820152621d101160e91b607c820152606085901b6bffffffffffffffffffffffff1916607f820152612a4c612a3e612a38609384017f227d7b2274726169745f74797065223a202261727469636c654964222c20227681526730b63ab2911d101160c11b602082015260280190565b866128e1565b61227d60f01b815260020190565b9695505050505050565b7f7b226e616d65223a2022506c65646765506f737420446f6e6174696f6e204e4681526254202360e81b602082015260008551612a9a816023850160208a016121bc565b72111610113232b9b1b934b83a34b7b7111d101160691b6023918401918201528551612acd816036840160208a016121bc565b6c1116101134b6b0b3b2911d101160991b603692909101918201528451612afb8160438401602089016121bc565b71222c202261747472696275746573223a205b60701b604392909101918201528351612b2e8160558401602088016121bc565b615d7d60f01b605592909101918201526057019695505050505050565b7f646174613a6170706c69636174696f6e2f6a736f6e3b6261736536342c000000815260008251612b8381601d8501602087016121bc565b91909101601d0192915050565b60208082526025908201527f4552433732313a207472616e736665722066726f6d20696e636f72726563742060408201526437bbb732b960d91b606082015260800190565b60208082526032908201527f4552433732313a207472616e7366657220746f206e6f6e20455243373231526560408201527131b2b4bb32b91034b6b83632b6b2b73a32b960711b606082015260800190565b808201808211156103b9576103b96126d1565b600082612c5757634e487b7160e01b600052601260045260246000fd5b500490565b80820281158282048414176103b9576103b96126d1565b6001600160a01b0385811682528416602082015260408101839052608060608201819052600090612a4c908301846121e0565b600060208284031215612cb857600080fd5b81516107c881612189565b818103818111156103b9576103b96126d1565b634e487b7160e01b600052603160045260246000fdfe4142434445464748494a4b4c4d4e4f505152535455565758595a6162636465666768696a6b6c6d6e6f707172737475767778797a303132333435363738392b2fa26469706673582212208da0e37f5ea53a6f97caed02a54c717ca4353390849b63171570552f232650a764736f6c63430008130033",
  "linkReferences": {},
  "deployedLinkReferences": {}
}